:020000040800F2
:100000008807002029020008CD1A0008F11900080D
:10001000C91A00081F040008F922000800000000A7
:10002000000000000000000000000000A51B000808
:100030003F05000800000000D11A0008D51B000889
:10004000430200084302000843020008430200087C
:10005000430200084302000843020008430200086C
:10006000430200084302000843020008430200085C
:10007000430200084302000843020008430200084C
:10008000430200084302000843020008430200083C
:10009000430200084302000843020008430200082C
:1000A000430200084302000843020008430200081C
:1000B000430200084302000843020008430200080C
:1000C00043020008430200084302000843020008FC
:1000D00043020008E9220008430200084302000826
:1000E00043020008430200084302000843020008DC
:1000F00043020008430200084302000843020008CC
:1001000043020008430200084302000843020008BB
:1001100043020008430200084302000843020008AB
:1001200043020008430200082504000843020008B7
:10013000430200084302000843020008430200088B
:10014000430200084302000843020008430200087B
:10015000430200084302000843020008430200086B
:10016000430200084302000843020008430200085B
:100170004302000843020008430200080000000098
:10018000430200084302000800F002F800F03CF8C7
:100190000AA090E8000C82448344AAF10107DA45E2
:1001A00001D100F031F8AFF2090EBAE80F0013F0F8
:1001B000010F18BFFB1A43F001031847B0270000D6
:1001C000D0270000103A24BF78C878C1FAD8520767
:1001D00024BF30C830C144BF04680C6070470000C1
:1001E0000023002400250026103A28BF78C1FBD840
:1001F000520728BF30C148BF0B6070471FB502F0DF
:100200009BFB1FBD10B510BD00F0CFF81146FFF7E6
:10021000F5FF02F08FF800F0EDF803B4FFF7F2FFFE
:1002200003BC00F0F5F80000094880470948004782
:10023000FEE7FEE7FEE7FEE7FEE7FEE7FEE7FEE796
:10024000FEE7FEE704480549054A064B70470000F3
:10025000951C0008890100088801002088070020FB
:10026000880300208803002053EA020C00F0698014
:100270002DE9F04B4FF00006002B1FBFB3FA83F5BA
:1002800003FA05F424FA05F65E4012BF1643B2FAEB
:1002900082F502FA05F4C5F120051EBF22FA05FC1D
:1002A00044EA0C04203556EA044C4FEA144418BFC3
:1002B000641C4FF000084FF00009904271EB030CF2
:1002C00039D3002919BFB1FA81F701FA07F6B0FA5C
:1002D00080F700FA07F6C7F120071EBF20FA07FCD7
:1002E00046EA0C062037B6FBF4FCA7EB0507103FE7
:1002F00007F01F0BCBF120060CFA0BFB2CFA06F6CD
:1003000044BFB3460026202FA4BF5E464FF0000B2B
:100310005BEA060C08BF4FF0010B19EB0B09ABFBB6
:10032000027C48EB0608C01B06FB02CC0BFB03CC8F
:1003300071EB0C01C1E70B46024641464846BDE859
:10034000F08B13B54FF000004FF00001AFF30080C9
:10035000BDE81C4070474FF0000200B513469446BC
:100360009646203922BFA0E80C50A0E80C50B1F10D
:100370002001BFF4F7AF090728BFA0E80C5048BF21
:100380000CC05DF804EB890028BF40F8042B08BFBF
:10039000704748BF20F8022B11F0804F18BF00F8BB
:1003A000012B7047704770477047754600F02CF876
:1003B000AE4605006946534620F00700854618B052
:1003C00020B5FFF73FFFBDE820404FF000064FF09B
:1003D00000074FF000084FF0000B21F00701AC467A
:1003E000ACE8C009ACE8C009ACE8C009ACE8C00999
:1003F0008D46704710B50446AFF300802046BDE837
:100400001040FFF70ABF0000004870472801002095
:1004100001491820ABBEFEE726000200704700BF6E
:10042000FEE7000010B5024800F0F8F810BD00002B
:10043000640000200146087810381823B0FBF3F25E
:100440000848805CC865032A05D908686FF309006D
:10045000001D886503E008686FF309008865886DF2
:10046000704700004C290008014600208A6A8B6909
:10047000CBB932B1012A0DD0022A03D0032A10D100
:100480000EE000BFCB6A03F08073B3F1807F00D130
:10049000012007E0CB6AB3F1C07F00D1012001E069
:1004A00000E000BF34E08B69B3F5005F1AD132B1D0
:1004B000012A07D0022A03D0032A11D10AE000BF83
:1004C00001200EE0CB6A03F08073B3F1807F00D18E
:1004D000012006E0CB6AB3F1C07F00D1012000E02B
:1004E00000BF15E032B1012A05D0022A04D0032A48
:1004F0000CD103E000BF00BF012008E0CB6A03F08D
:100500008073B3F1807F00D1012000E000BF00BF05
:10051000704730B50468246824F4802405682C6092
:10052000046863608468402C04D10468A260046895
:10053000E16003E00468A1600468E26030BD7047D8
:1005400072B600BFFEE770B50446A56D00F072FB01
:10055000064694F83500022808D08020606500BF68
:10056000002084F8340000BF012070BD20680068BE
:1005700020F01600216808602068406920F08000A3
:1005800021684861206C08B9A06C28B12068006817
:1005900020F00800216808602068006820F0010051
:1005A0002168086010E000F045FB801B05280BD98E
:1005B00020206065032084F8350000BF002084F807
:1005C000340000BF0320D0E72068006800F001007D
:1005D0000028E8D194F85C103F208840A8600120F2
:1005E00084F8350000BF002084F8340000BF00BF4D
:1005F000BBE7014691F83500022803D0802048650A
:1006000001207047052081F835000868006820F057
:1006100001000A6810600020F3E70000F8B5044606
:10062000002000908C4800684FF41651B0FBF1F7A1
:10063000A56D2E6894F85C1008208840304098B171
:100640002068006800F0040070B12068006820F0A5
:1006500004002168086094F85C1008208840A860B5
:10066000606D40F00100606594F85C1001208840E6
:10067000304068B12068406900F0800040B194F8D3
:100680005C1001208840A860606D40F00200606549
:1006900094F85C1004208840304068B120680068FD
:1006A00000F0020040B194F85C1004208840A8607B
:1006B000606D40F00400606594F85C101020884084
:1006C000304078B32068006800F0080050B394F818
:1006D0005C1010208840A8602068006800F480202A
:1006E00080B12068006800F4002028B9206CC8B1EF
:1006F0002046216C884715E0A06C98B12046A16C7B
:1007000088470FE02068006800F4807028B92068EE
:10071000006820F0080021680860206C10B12046B5
:10072000216C884794F85C102020884030400028D5
:1007300065D02068006800F0100000285FD094F8B1
:100740005C1020208840A86094F83500052828D146
:100750002068006820F01600216808602068406961
:1007600020F0800021684861206C08B9A06C28B195
:100770002068006820F008002168086094F85C1088
:100780003F208840A860012084F8350000BF002089
:1007900084F8340000BF206D10B12046216D8847D9
:1007A000F8BD2068006800F4802080B120680068EF
:1007B00000F4002028B9606C10B12046616C8847B5
:1007C0001DE0E06BD8B12046E16B884717E0206858
:1007D000006800F4807068B92068006820F010009C
:1007E00021680860012084F8350000BF002084F8EB
:1007F000340000BFE06B10B12046E16B8847606DAC
:1008000038B3606D00F00100F0B1052084F83500C8
:100810002068006820F001002168086000BF00988F
:10082000401C0090B84200D905E02068006800F044
:1008300001000028F3D100BF012084F8350000BF7B
:10084000002084F8340000BFE06C10B12046E16C59
:10085000884700BFA4E70000180000202DE9F04100
:100860000446002500F0E6F9074614B90120BDE86A
:10087000F081606A00B100BF022084F8350000BF3B
:10088000002084F8340000BF2068006820F00100D8
:10089000216808600AE000F0CDF9C01B052805D9E1
:1008A00020206065032084F83500E0E720680068B8
:1008B00000F001000028EED12068056821480540BD
:1008C000D4E901010843E1680843216908436169EB
:1008D0000843A1690843E1690843216A08430543C5
:1008E000606A042803D1D4E90B010843054320685A
:1008F00005602068456925F00705606A0543606A60
:1009000004280DD1A06A0543E06A48B12046FFF7EC
:10091000ABFD28B140206065012084F83500A6E7D2
:10092000206845612046FFF785FD064694F85C1077
:100930003F208840B06000206065012084F83500C9
:10094000002094E73F8010F02DE9F04104460D4669
:1009500016461F464FF0000800BF94F834000128E7
:1009600002D10220BDE8F081012084F8340000BFEC
:1009700094F83500012811D1022084F835000020B8
:1009800060653B46324629462046FFF7C2FD206897
:10099000006840F001002168086006E000BF002008
:1009A00084F8340000BF4FF002084046DAE72DE932
:1009B000F04704460D4616461F464FF00008D4F88F
:1009C000589000BF94F83400012802D10220BDE8FD
:1009D000F087012084F8340000BF94F83500012826
:1009E00025D1022084F83500002060653B46324660
:1009F00029462046FFF78DFD94F85C103F20884083
:100A0000C9F808002068006840F0160021680860F6
:100A1000206C28B12068006840F008002168086058
:100A20002068006840F001002168086006E000BF0F
:100A3000002084F8340000BF4FF002084046C6E7AB
:100A4000F8B502460B460025002400200021D6E020
:100A5000012606FA01F51E6806EA0504AC4274D1C7
:100A60001E7906F00306012E04D01E7906F0030657
:100A7000022E13D190684F000326BE40B0434F00B2
:100A8000DE68BE4030439060506801268E40B0431F
:100A90001E79C6F300168E40304350601E7906F072
:100AA0000306032E09D0D0684F000326BE40B04392
:100AB0004F009E68BE403043D0601E7906F00306AA
:100AC000022E13D1CF0802F1200656F827004E0758
:100AD000F70E0F26BE40B0434F07FF0E1E69BE4003
:100AE0003043CF0802F1200646F8270010684F0077
:100AF0000326BE40B0431E7906F003064F00BE40F9
:100B0000304310605E6806F44036002E76D000BF99
:100B1000002600963C4E366846F480463A4F3E60CA
:100B20003E46366806F48046009600BF00BF374E4A
:100B30008F0856F827008E07370F0F26BE40B043A8
:100B4000334EB24202D1002624E057E0314EB24289
:100B500001D101261EE0304EB24201D1022619E039
:100B60002E4EB24201D1032614E02D4EB24201D1E5
:100B700004260FE02B4EB24201D105260AE02A4E90
:100B8000B24201D1062605E0284EB24201D1072625
:100B900000E008268F073F0FBE4030431B4E8F08F2
:100BA00046F82700224E3068A0435E6806F480169F
:100BB00006B120431E4E3060361D3068A0435E688B
:100BC00006F4001606B12043194E361D3060184E4B
:100BD000361F3068A0435E6806F4003606B1204335
:100BE000134E361F3060361F3068A0435E6806F42F
:100BF000803606B120430E4E083E3060491C102955
:100C0000FFF426AFF8BD0000443802400838014028
:100C1000000002400004024000080240000C0240B4
:100C2000001002400014024000180240001C024064
:100C3000083C014001480068704700000C0000209B
:100C4000034800680349097808440149086070476F
:100C50000C0000201400002010B50D48006840F47E
:100C600000700B4908600846006840F48060086026
:100C70000846006840F480700860032000F0A6F881
:100C80000F2000F007F800F02BF8002010BD000046
:100C9000003C024070B504460E4800784FF47A716B
:100CA000B1FBF0F00C490968B1FBF0F5284600F003
:100CB0002FFC08B1012070BD102C07D20022214664
:100CC000501E00F045F80548046001E00120F2E7FD
:100CD0000020F0E714000020180000201000002081
:100CE00008B500BF002000900E48006840F4804026
:100CF0000C4908600846006800F48040009000BF7E
:100D000000BF00BF00200090081F006840F0805026
:100D1000091F08600846006800F08050009000BF7E
:100D200000BF08BD443802400146084600280DDBDC
:100D300000BF00BF00F01F0301229A4043099B003F
:100D400003F1E023C3F8002100BF00BF00BF7047DC
:100D50002DE9F05F80460D461646002701F0CEFAD9
:100D6000074639462A46334601F00700C0F1070A14
:100D7000BAF1040F02D94FF0040A01E0C0F1070AEA
:100D8000D14600F1040ABAF1070F02D24FF0000A6F
:100D900001E0A0F1030AD4464FF0010A0AFA09FA69
:100DA000AAF1010A0AEA020A0AFA0CFA4FF0010B48
:100DB0000BFA0CFBABF1010B0BEA030B4AEA0B0439
:100DC0002146404601F0A2FABDE8F09F00BF00F0C6
:100DD0000702064B19684FF6FF031940044B0B43FB
:100DE00043EA0221014B196000BF70470CED00E09F
:100DF0000000FA0570B504460D460CB9012070BD1F
:100E00005848006800F00700A84209D255490D7003
:100E10000846006800F00700A84201D00120EEE774
:100E2000207800F0020002281DD1207800F0040094
:100E3000042805D14C48006840F4E0504A49086055
:100E4000207800F00800082805D14748006840F4E1
:100E50006040454908604448006820F0F000A168FF
:100E6000084341490860207800F00100A8B3606899
:100E7000012807D13C4808380068C0F34040B8B9A1
:100E80000120BCE76068022802D06068032807D10F
:100E9000354808380068C0F3406048B90120AEE723
:100EA000314808380068C0F3400008B90120A6E7BF
:100EB0002D48006820F00300616808432A49086053
:100EC000FFF7B8FE064609E0FFF7B4FE801B41F2CB
:100ED0008831884202D9032091E707E02248006860
:100EE00000F00C006168B0EB810FEDD11D48006887
:100EF00000F00700A84209D91A490D700846006899
:100F000000F00700A84201D0012078E7207800F027
:100F10000400042807D11448006820F4E050E16878
:100F2000084311490860207800F00800082808D11B
:100F30000D48006820F46040216940EAC1000A4978
:100F4000086000F03FF808490968C1F30311074A37
:100F5000515CC8400649086006480068FFF79AFEE1
:100F600000204CE7003C02400838024054290008A9
:100F700018000020100000200148006870470000A1
:100F80001800002000B5FFF7F7FF04490968C1F316
:100F90008221034A515CC84000BD0000083802406D
:100FA0006429000800B5FFF7E7FF04490968C1F3A9
:100FB0004231034A515CC84000BD0000083802407D
:100FC000642900082DE9F047002400250026A146E9
:100FD0002548006800F00C0020B1042805D008283E
:100FE0003AD105E0DFF8849039E0DFF8849036E00C
:100FF0001D48001F006800F03F041B48001F0068E8
:1010000000F4800078B11A481749091F0968C1F334
:101010008811A0FB01700146224600233846FFF7E5
:1010200023F905460EE011480F49091F0968C1F36D
:101030008811A0FB01700146224600233846FFF7C5
:1010400013F905460848001F0068C0F30140401C22
:101050004600B5FBF6F902E0DFF8109000BF00BFD4
:101060004846BDE8F0870000083802400024F4003C
:1010700040787D01F8B504460CB90120F8BD207810
:1010800000F00100002874D0F948006800F00C005E
:1010900004280DD0F648006800F00C00082813D191
:1010A000F348001F006800F48000B0F5800F0BD1FA
:1010B000EF4808380068C0F34040002859D0606805
:1010C000002856D10120D9E700BF6068B0F5803F05
:1010D00008D1E7480838006840F48030E44908390E
:1010E00008601EE06068B0F5A02F0DD1E048083818
:1010F000006840F48020DE4908390860084600682E
:1011000040F4803008600CE0D9480838006820F4CA
:101110008030D749083908600846006820F48020EC
:10112000086000BF606890B1FFF784FD054606E0E7
:10113000FFF780FD401B642801D903209EE7CC48BF
:1011400008380068C0F340400028F1D011E0FFF7F4
:1011500071FD054606E0FFF76DFD401B642801D9CF
:1011600003208BE7C24808380068C0F340400028DD
:10117000F1D1207800F0020002285FD1BC4800685D
:1011800000F00C0058B1BA48006800F00C000828C4
:101190001CD1B748001F006800F48000B0B9B44803
:1011A00008380068C0F3400020B1E068012801D091
:1011B000012063E7AE480838006820F0F800216994
:1011C00040EAC100AA490839086037E0E06800B386
:1011D0000120A8490860FFF72DFD054606E0FFF74E
:1011E00029FD401B022801D9032047E7A048083801
:1011F0000068C0F340000028F1D09D48083800681E
:1012000020F0F800216940EAC100994908390860D6
:1012100014E0002097490860FFF70CFD054606E042
:10122000FFF708FD401B022801D9032026E790485C
:1012300008380068C0F340000028F1D1207800F0A1
:10124000080008282CD16069A8B101208A490860EB
:10125000FFF7F0FC054606E0FFF7ECFC401B022818
:1012600001D903200AE782486C300068C0F34000CF
:101270000028F1D014E000207F490860FFF7DAFC75
:10128000054606E0FFF7D6FC401B022801D90320E3
:10129000F4E677486C300068C0F340000028F1D1D4
:1012A000207800F00400042870D1002770483830FE
:1012B000006800F0805090B900BF002000906C489A
:1012C0003830006840F0805069493831086008467D
:1012D000006800F08050009000BF00BF0127674801
:1012E000006800F48070B0B96448006840F4807011
:1012F00062490860FFF79EFC054606E0FFF79AFC8E
:10130000401B022801D90320B8E65C48006800F4BD
:1013100080700028F2D000BFA068012808D154488E
:101320006830006840F001005149683108601DE0F4
:10133000A06805280DD14E486830006840F00400D0
:101340004B49683108600846006840F001000860B9
:101350000CE047486830006820F0010044496831DB
:1013600008600846006820F00400086000BFA0681C
:10137000A8B1FFF75FFC054609E0FFF75BFC401BE7
:1013800041F28831884202D9032077E626E03848C6
:1013900068300068C0F340000028EED013E0FFF78B
:1013A00049FC054608E0FFF745FC401B41F2883147
:1013B000884201D9032061E62D4868300068C0F3F7
:1013C00040000028EFD1012F07D1294838300068AC
:1013D00020F0805026493831086000BFA0690028FD
:1013E00045D02348006800F00C0008285DD0A069B3
:1013F000022845D100201F490866FFF71BFC05465F
:1014000006E0FFF717FC401B022801D9032035E650
:10141000174808380068C0F340600028F1D1D4E9CB
:1014200007010843616A40EA81110122A06AC2EB08
:10143000500041EA00412C20005D41EA00600C4967
:10144000091F086001200B490866FFF7F3FB0546FA
:1014500006E0FFF7EFFB401B022801D903200DE651
:10146000034808380068C0F340600028F1D049E024
:101470000838024000004742800E4742007000409A
:10148000002021490866FFF7D5FB054606E0FFF777
:10149000D1FB401B022801D90320EFE51B4800685F
:1014A000C0F340600028F2D12CE0A069012800D1EF
:1014B000E4E51648001D0668A069012820D006F45E
:1014C0008001E06981421BD106F03F01206A814220
:1014D00016D147F6C0703040616AB0EB811F0FD162
:1014E00006F440310122A06AC2EB5000B1EB004F7C
:1014F00006D106F070612C20005DB1EB006F01D0C9
:101500000120BBE50020B9E5000047420038024059
:1015100070B504462546681EB0F1807F01D30120D6
:101520000FE0681E4FF0E02148610F214FF0FF30BF
:1015300000F0ECFE00204FF0E021886107200861F8
:10154000002070BD704770472DE9F84F04462068B1
:1015500005682068C668206847694FF00009CA46D8
:1015600005F00F09B9F1000F0AD105F0200038B1DC
:1015700006F0200020B1204600F08DFCBDE8F88F79
:10158000B9F1000F7CD007F0010018B906F4907093
:10159000002875D005F0010030B106F4807018B154
:1015A000606C40F00100606405F0040030B107F0A9
:1015B000010018B1606C40F00200606405F00200A8
:1015C00030B107F0010018B1606C40F004006064B5
:1015D00005F0080048B106F0200010B907F001003E
:1015E00018B1606C40F008006064606C002846D060
:1015F00005F0200028B106F0200010B1204600F0D0
:101600004AFC20684069C0F3801A606C00F0080052
:1016100010B9BAF1000F2DD0204600F0E3FB20688E
:10162000406900F04000402820D100BF00BF216881
:10163000143151E8001F21F040002168143141E8C5
:101640000002002AF3D100BFE06B50B17748E16B94
:101650000865E06BFEF7CDFF88B1E06B016D884750
:101660000DE02046FFF76FFF09E009E02046FFF795
:101670006AFF04E02046FFF766FF002060647DE714
:10168000206B012878D105F01000002874D006F0F6
:1016900010000028FAD000BF0020009020680068E9
:1016A000009020684068009000BF00BF206840693B
:1016B00000F04000402860D1E06B006840681FFAED
:1016C00080F8B8F1000F56D0A08D404553DDA4F846
:1016D0002E80E06BC069B0F5807F43D000BF00BFB3
:1016E00021680C3151E8001F21F4807021680C3111
:1016F00041E80002002AF3D100BF00BF00BF21680B
:10170000143151E8001F21F001002168143141E833
:101710000002002AF3D100BF00BF00BF21681431CE
:1017200051E8001F21F040002168143141E8000217
:10173000002AF3D100BF202084F84200002020635B
:1017400000BF00BF21680C3151E8001F21F01000DC
:1017500021680C3141E80002002AF3D100BFE06BA0
:10176000FEF7F1FE02206063A08DE28D801A81B247
:101770002046FFF7E7FE01E742E0A08DE18D401A29
:101780001FFA80F8E08DD0B3B8F1000F37D000BF5A
:1017900000BF21680C3151E8001F21F490702168CE
:1017A0000C3141E80002002AF3D100BF00BF00BFA6
:1017B0002168143151E8001F21F001002168143123
:1017C00041E80002002AF3D100BF202084F8420043
:1017D0000020206300BF00BF21680C3151E8001FCA
:1017E00021F0100021680C3141E80002002AF3D1F9
:1017F00000BF0220606341462046FFF7A3FEBDE61E
:1018000005F0800030B106F0800018B1204600F0ED
:101810003BFDB3E605F0400030B106F0400018B1E2
:10182000204600F015FBA9E600BFA7E6A91C0008AA
:1018300010B504460CB9012010BDA06900B100E04C
:1018400000BF94F8410028B9002084F840002046E9
:1018500000F02AF8242084F841002068C06820F4B1
:1018600000502168C860204600F094FB20680069A1
:1018700020F49040216808612068406920F02A0027
:10188000216848612068C06840F400502168C86041
:1018900000206064202084F8410084F84200002089
:1018A000606300BFC8E7000010B586B0044614218D
:1018B00001A8FEF750FD2F492068884257D100BF8C
:1018C000002000902C48006840F010002A49086071
:1018D0000846006800F01000009000BF00BF00BF85
:1018E0000020009024481438006840F0020022498B
:1018F000143908600846006800F00200009000BF3C
:1019000000BFC0200190022002900020039003201D
:1019100004900720059001A91848FFF791F818488E
:10192000184908604FF00060486000211548816048
:10193000C1604FF4806101610021416181614FF418
:101940008071C161002101624162FEF787FF08B129
:10195000FEF7F6FD00BF0B48E063846300BF002282
:1019600011462520FFF7F4F92520FFF7DDF906B031
:1019700010BD000000100140443802400004024045
:10198000406402406400002070B504460D461646CF
:1019900094F8420020280BD105B10EB9012070BD8A
:1019A0000020206332462946204600F009FCF6E775
:1019B0000220F4E710B504460849206888420CD19B
:1019C00007480068011D6423064A0748FEF7BCFF6C
:1019D000642204490248FFF7D7FF10BD00440040CD
:1019E0001C000020C40000206400002070477047E5
:1019F00000BFFEE708B500BF002000900A4800685D
:101A000040F48000084908600846006800F480003F
:101A1000009000BF00BF002211463A20FFF798F95E
:101A20003A20FFF781F908BD3038024008B500BF01
:101A3000002000901548006840F00100134908603C
:101A40000846006800F00100009000BF00BF00BF22
:101A5000002000900846006840F002000860084638
:101A6000006800F00200009000BF00BF00BF00202F
:101A700000900846006840F0800008600846006852
:101A800000F08000009000BF00BF08BD3038024069
:101A900010B50B480B4908604FF4E1304860002155
:101AA00008488160C16001610C21416100218161B0
:101AB000C161FFF7BDFE08B1FEF742FD10BD000099
:101AC000001001401C00002000BFFEE700BFFEE741
:101AD000704700002DED088B002458E0632C01DDD9
:101AE000002452E02A48005D0D284ED12849601C90
:101AF000085C0A2849D1A01C085C642845D1E01C78
:101B0000085C3A2841D1E01D64283EDA601D085C7B
:101B100000F00F001F4908701D49A01D085C00F06F
:101B20000F001C4948701A49E01D085C00F00F00C6
:101B300018498870164904F10800085C00F00F008D
:101B40001449C870C87800F0FCFC9FED130B53ECEF
:101B5000102B00F009FD41EC190B0E4909786422A5
:101B600011FB02F10B4A527802EB820201EB4201B7
:101B7000084A9278881800F0CDFC53EC192B00F03D
:101B800021FC00F0EDFB06490860601CC4B2A5E72B
:101B9000C4000020000000209A9999999999B93FB2
:101BA000080000207047000010B507480068011DBC
:101BB0006423064A0648FEF7C7FE6422034902482A
:101BC000FFF7E2FE10BD00001C000020C400002052
:101BD0006400002010B5FFF733F810BD00B593B0D6
:101BE000302107A8FEF7B7FB142102A8FEF7B3FBCC
:101BF00000BF002001902548006840F08050234934
:101C000008600846006800F08050019000BF00BFE7
:101C100000BF002001901E48006840F480401C492D
:101C200008600846006800F48040019000BF00BFD3
:101C30000220079001200A9010200B9002200D90A6
:101C400000210E9108210F91A821109102211191DC
:101C50000421129107A8FFF70DFA08B1FEF770FCF6
:101C60000F20029002200390002004904FF4A05017
:101C700005904FF480500690052102A8FFF7BAF8AE
:101C800008B1FEF75DFC13B000BD00004038024013
:101C9000007000400348006840F47000014908608B
:101CA0007047000088ED00E070B50546AC6B002081
:101CB000E085E0842046FFF746FC70BD70B506461F
:101CC0000025B46B20684069C0F3C01594F841004A
:101CD000212805D125B10020E084204600F0C8F875
:101CE00020684069C0F3801594F84200222805D18D
:101CF00025B10020E085204600F074F8606C40F0CB
:101D0000100060642046FFF71EFC70BD70B50546EC
:101D1000AC6B2868006800F48070002842D1E08530
:101D200000BF00BF21680C3151E8001F21F4807012
:101D300021680C3141E80002002AF3D100BF00BF46
:101D400000BF2168143151E8001F21F00100216813
:101D5000143141E80002002AF3D100BF00BF00BFE8
:101D60002168143151E8001F21F04000216814312E
:101D700041E80002002AF3D100BF202084F842008D
:101D8000206B01280ED100BF00BF21680C3151E843
:101D9000001F21F0100021680C3141E80002002AE8
:101DA000F3D100BF00206063206B012804D1A18D16
:101DB0002046FFF7C7FB02E02046FFF7FBFD70BDA2
:101DC00070B50546AC6B01206063206B012805D11E
:101DD000A08D41082046FFF7B5FB02E02046FFF743
:101DE00005FE70BD00BF00BF02680C3252E8002F34
:101DF00022F4907102680C3242E80013002BF3D1F8
:101E000000BF00BF00BF0268143252E8002F22F06A
:101E100001010268143242E80013002BF3D100BF25
:101E2000016B01290ED100BF00BF02680C3252E8DD
:101E3000002F22F0100102680C3242E80013002B40
:101E4000F3D100BF202180F84210002101637047C8
:101E500010B504462068C06820F040002168C860C2
:101E6000202084F841002046FFF7C1FD002010BD6E
:101E700000BF00BF02680C3252E8002F22F0C00100
:101E800002680C3242E80013002BF3D100BF20217E
:101E900080F841107047F8B5044694F842002228B3
:101EA00075D1A068B0F5805F0CD1206950B90025CC
:101EB000A66A20684068C0F308003080A06A801CD1
:101EC000A06215E0A56A0026A068B0F5805F03D087
:101ED000A06828B9206918B920684068287004E013
:101EE0002068406800F07F002870A06A401CA06253
:101EF000E08D401E80B2E085002846D12068C06891
:101F000020F020002168C8602068C06820F480703C
:101F10002168C8602068406920F00100216848619C
:101F2000202084F8420000206063206B012826D125
:101F30000020206300BF00BF21680C3151E8001F62
:101F400021F0100021680C3141E80002002AF3D191
:101F500000BF2068006800F0100010280AD100BF00
:101F60000020009020680068009020684068009081
:101F700000BF00BFA18D2046FFF7E4FA02E0204633
:101F8000FFF718FD0020F8BD01E00020FBE702206C
:101F9000F9E700002DE9F84F04462068006920F4B5
:101FA0004050E1680843216808612169A06808433E
:101FB00061690843E169084300902068C06849F2FC
:101FC0000C618843009908432168C8602068406913
:101FD00020F44070A169084321684861764920686F
:101FE000884203D075492068884203D1FEF7DAFFA2
:101FF000814602E0FEF7C6FF8146E069B0F5004F7A
:102000006CD102206168A0FB015003461920A9FB96
:10201000007001462A463846FEF726F96421B0FBD7
:10202000F1F04FEA001A02206168A0FB01510B4653
:102030001920A9FB00712A463846FEF715F9834698
:1020400002206168A0FB015003461920A9FB007122
:102050002A463846FEF708F96421B0FBF1F000EBA0
:10206000C00101EB0010ABEB8000322101EBC0009E
:102070006421B0FBF1F000F0F8000AEB400A022006
:102080006168A0FB015003461920A9FB00700146BE
:102090002A463846FEF7E8F8834602206168A0FB2E
:1020A000015003461920A9FB00712A463846FEF765
:1020B000DBF86421B0FBF1F000EBC00101EB001094
:1020C000ABEB8000322101EBC0006421B0FBF1F0EA
:1020D00000F007005044216888606AE004206168CD
:1020E000A0FB015003461920A9FB007001462A46B7
:1020F0003846FEF7B9F8824604206168A0FB01501B
:1021000003461920A9FB007001462A463846FEF70F
:10211000ABF86421B0FBF1F000EBC00101EB001063
:10212000AAEB8000322101EB00106421B0FBF1F03A
:1021300000F0F00A04206168A0FB0170034619203A
:10214000A9FB00513A462846FEF78EF86421B0FB01
:10215000F1F00AEB001A04206168A0FB01510B4664
:102160001920A9FB00712A463846FEF77DF8834600
:1021700004206168A0FB015003461920A9FB0070F0
:1021800001462A463846FEF76FF86421B0FBF1F0AD
:1021900000EBC00101EB0010ABEB8000322101EB42
:1021A00000106421B0FBF1F000F00F0050442168F2
:1021B0008860BDE8F88F0000001001400014014065
:1021C00077B581B0044615460298A062A585002027
:1021D0006064222084F842002848E16BC8632848E4
:1021E000E16B08642748E16BC8640020E16B086577
:1021F00002AE32682368191D2B46E06BFEF7D7FB51
:1022000000BF0020009020680068009020684068AF
:10221000009000BF00BF206970B100BF00BF2168FF
:102220000C3151E8001F41F4807021680C3141E805
:102230000002002AF3D100BF00BF00BF21681431A3
:1022400051E8001F41F001002168143141E800020B
:10225000002AF3D100BF00BF00BF2168143151E84C
:10226000001F41F040002168143141E80002002ABB
:10227000F3D100BF002004B070BD00000D1D0008A8
:10228000C11D0008BD1C0008014691F8410021282D
:1022900028D18868B0F5805F0BD1086948B90A6A0F
:1022A0001088C0F308000B685860086A801C086238
:1022B00005E00B6A581C086218780B685860C88CD7
:1022C000401E80B2C88458B90868C06820F08000F9
:1022D0000B68D8600868C06840F040000B68D860A0
:1022E000002070470220FCE710B50248FFF72CF9E8
:1022F00010BD00001C00002000BFFEE7024800687F
:10230000C0F30220704700000CED00E010B500287B
:1023100004DB0A07130E054A135406E00A07140EDD
:10232000034A00F00F031B1FD45410BD00E400E06B
:1023300018ED00E0FEF790FCFFF750FCFFF776FB8E
:10234000FFF758FBFFF7A4FB0448FFF7ADFAFFF7D0
:102350002BFC01E0FFF7BEFBFCE700001C000020A7
:1023600021F00042A2F16052B2F5801F01F000435B
:1023700028BFD2F17F6C0BD95FEA001C43EAC2028E
:1023800042EB507018BF704728BF20F00100704723
:10239000B2F5801FBCBF184670474FEA410C1CF5D0
:1023A000001F02D2084600F0CCBA70B500F086F9E2
:1023B00000000089FFF7F6BF4FF00040A0F5800055
:1023C0007047000010B591EA030F48BF83F0004347
:1023D00000F1D081841A71EB030C05D2121943EB82
:1023E0000C03001B61EB0C01DFF824E14FEA1154F0
:1023F000A4EB135C1EEA430F18BF9EEA445F73D040
:1024000023EA0E03DCF1200E21EA045143F4801389
:1024100032D322FA0CFE10EB0E0023FA0CFE41EB35
:102420000E01CCF1200E03FA0EFE10EB0E0051F15E
:102430000001B1F5801FCCF1200E32D201EB045126
:1024400012FA0EF2BDE8104058BF7047401C38BF6A
:102450005FEA420218BF7047002814BF20F0010055
:1024600041F100014FEA410313F5001F38BF7047E7
:10247000A1F1C04100F070B9012A43EB0302ACF1B5
:10248000200CDCF11F0E32BF4FF0000E23FA0CF3CC
:1024900010EB030041EB0451B4EB115FD0D0A1EB82
:1024A000045101F5801149085FEA300001EB045145
:1024B0000ED350F1000038BF12FA0EFE08D1BDE86D
:1024C0001040C9E7401C38BF5FEA4202CAD1C3E7E7
:1024D000BDE810404FEA410313F5001F38BF7047B5
:1024E000A1F1C04100F038B99EEA445F08D011EA7A
:1024F0005E0FBDE8104004BF01F0004100207047AE
:10250000BDE8104070B500F0D9F800BF64FBBE3ED6
:102510000000E0FF10F0004248BF4042B0FA80F3F4
:1025200010FA03F10AD0C3F11D0303F580634FEAEB
:10253000415002EB035202EBD12170474FF00000F3
:102540007047B0FA80F310FA03F10AD0C3F11D030B
:1025500003F580634FEA41504FEA035202EBD12169
:1025600070474FF000007047DFF848C170B51CEAB3
:10257000111E1EBF1CEA13159EEA0C0F95EA0C0FE4
:1025800000F06F8081EA030423EA4C134EEAD47E04
:1025900021EA4C1141F4801143F48013AE44A1FBB5
:1025A000024CA0FB0365AEF17F7E361955EB0C059E
:1025B000A1FB034C4CF10003A0FB021C16EB0C0624
:1025C000654153F10003094218BF46F0010613F4B8
:1025D000007F0BD14FEA03314FEA0530340341EA63
:1025E000155140EA16506FF003020AE04FEAC3218A
:1025F0004FEAC520F40241EA555140EA56506FF0C7
:10260000020202EB2E4201EB025585EACE710AD09E
:102610005FEA440C18BF24F0004450F1000041F17F
:10262000000120EAD47040F2FE7C624500D270BD09
:10263000A84214BF4FF080444FF04044002E08BF22
:102640000024BEF1806FA8BFA1F1C041BDE8704079
:1026500080F282804FF0000001F1C04101F00041A2
:1026600070479EEA0C0F0CEA131518BF95EA0C0F81
:1026700006D04FF0000081EA030E0EF0004170BD5D
:1026800000F01CF88900013E00F007B800F009B81E
:102690004FEA430C5FEA5C5C08D081EA030100F07A
:1026A0005BB84FEA410C5FEA5C5CF6D14FF000008A
:1026B000014970470000FF070000F87F0EF1020E8D
:1026C0002EF0030E5EF8046B364205D4012A43EB6C
:1026D000030515F5001F12D8012841EB010C1CF56C
:1026E000001F0CD80ED14FEAD17C15F5001F0CEB62
:1026F0004C0C0CF1020C08BF4CEBD37C04E04FF007
:10270000080C01E04FEAD37C0CEB4C0526FA05F6E9
:1027100006F00706B6F1040C06D20EEB860CBDE8F7
:1027200070404CF0010C6047DFE80CF0090B02022E
:102730004FF000414FF00000A1F5002170BD194697
:102740001046012851EB010418BFD4F5001484BFD2
:10275000002001F0004170BD0808A0F500114FEA0B
:102760003101704710B591EA030F48BF83F0004371
:102770003FF530AE841A71EB030C07D212198CF0BE
:10278000004C43EB0C03001B61EB0C01DFF8A4E1F0
:102790004FEA1154A4EB135C1EEA430F18BF9EEAE4
:1027A000445F00F0B08023EA6E03524221EA0451F4
:1027B000C3EB6E0338BF5B1EDCF1200E25D322FA7B
:1027C0000CFE10EB0E0043FA0CFE41EB0E01CCF1B7
:1027D000200E03FA0EFE10EB0E0051F10001CCF1B9
:1027E000200E29D412FA0EF201EB0451BDE810407C
:1027F00058BF7047401C1CBFB2F1004F7047002803
:102800000CBF491C20F00100704712EB020E43EB95
:10281000030218BF4FF0010E4EEA4202ACF1200C49
:10282000DCF11E0E54D943FA0CFE10EB0E0051F1F0
:10283000FF31CCF11E0ED5D50EF1010E12FA0EFEAF
:10284000404141EB010101EB445C5FEA5C5C10D963
:1028500010EBDE7001EB045138BFBEF1004FBDE854
:10286000104018BF704700280CBF491C20F0010021
:10287000704730D24FEAD42C11F5001124F40064D3
:102880001BD0B1FA81F20B3AA41AA41ED2F1200394
:10289000914030FA03F31943904001EBCC71002CC6
:1028A00001EB0451BDE81040A8BF704701F1C041E1
:1028B0004FF0000001F000417047B0FA80F310FAC9
:1028C00003F100D110BDE41A173C4805C90AE4E73A
:1028D00001EB045110BD491001EB0451BDE810405B
:1028E0004FEA300002E04FF0000170474A0008BF95
:1028F0000042F8D0B2F5001F28BF704701F0004138
:102900004FF0000070479EEA445F07D011EA5E0F67
:10291000BDE8104004BF002100207047BDE8104012
:1029200070B5FFF7CBFE00BF40DFF63E83F00041FD
:10293000104670470000E0FF4FF04070E1EE100AD3
:102940007047FF2141EAD050C005704700061016BD
:102950000006101600000000000000000102030441
:102960000607080900000000010203048C29000882
:10297000000000201C000000C4010008A829000875
:102980001C0000206C070000E001000800000000AF
:102990000000000000000000000000001000000027
:0829A000010000000024F40016
:040000050800018965
:00000001FF
