:020000040800F2
:1000000048FA012059020008412C00083D2B000845
:100010003D2C0008C10E00086B61000800000000C4
:10002000000000000000000000000000A101000826
:100030008D23000800000000F50100086D34000861
:1000400073020008730200087302000873020008BC
:10005000730200087302000891230008730200086D
:10006000730200087302000873020008730200089C
:10007000730200087302000873020008730200088C
:10008000730200087302000873020008730200087C
:10009000D10F000873020008730200087302000801
:1000A000730200087302000873020008730200085C
:1000B0007302000873020008FD360008730200088E
:1000C000730200087302000873020008730200083C
:1000D00073020008A53D000873020008893F00086C
:1000E000730200087302000873020008730200081C
:1000F000730200087302000873020008730200080C
:1001000073020008730200087302000873020008FB
:1001100073020008730200087302000873020008EB
:1001200073020008730200087302000873020008DB
:1001300073020008730200087302000873020008CB
:10014000111100087302000873020008D12C000886
:10015000730200087302000873020008F5410008EA
:10016000730200087302000873020008730200089B
:100170007302000873020008730200080000000008
:100180007302000873020008DFF810D000F0A6F92F
:10019000004800474D7A0008AFF3008048FA01207C
:1001A0002A4B19680868B0E8F04F80F30988BFF35C
:1001B0006F8F4FF0000080F311887047000000003F
:1001C00006480068006880F3088862B661B6BFF32D
:1001D0004F8FBFF36F8F00DF00BF00BF08ED00E05F
:1001E000DFF80C00016841F470010160704700BF46
:1001F00088ED00E0EFF30980BFF36F8F134B1A68AF
:100200001EF0100F08BF20ED108A20E9F04F10609B
:1002100008B44FF0500080F31188BFF34F8FBFF345
:100220006F8F09F09BFA4FF0000080F3118808BC33
:1002300019680868B0E8F04F1EF0100F08BFB0EC66
:10024000108A80F30988BFF36F8F7047D4000020B5
:10025000EFF30580704700000648804706480047D6
:10026000FEE7FEE7FEE7FEE7FEE7FEE7FEE7FEE766
:10027000FEE7FEE7B9340008890100089FED1A1A6D
:10028000F5EE000A40EE010ABDEEE00AF5EEC00A06
:1002900010EE100AF1EE10FA38BF401E00EE100A00
:1002A0001349F7EE001AB8EEC00A30EEC00ADFEDCF
:1002B0000F0A20EE200AFCEEC00A10EE900AC0F3EE
:1002C000080000EE900A01EB8000F8EE600A90ED65
:1002D000011A70EE600A90ED000A71EEE01A21EE4C
:1002E000800A00EE810A704783F9223E0000004434
:1002F000E8A60008DFED190AB5EEC00A60EE200A94
:10030000BDEEE01A11EE100AF1EE10FA38BF401EF1
:1003100000EE100A1349F7EE001AB8EEC00A30EEEC
:10032000C00ADFED0F0A60EE200ABCEEE00A10EE14
:10033000100AC0F3080000EE100A01EB8000B8EECE
:10034000400A90ED011A70EEC00A90ED000A71EEBD
:10035000E01A21EE800A00EE810A704783F9223EFE
:1003600000000044E8A60008018042804360704716
:100370002DE9F04F02884768B0F802804888D1F82C
:10038000049082B04FF0000A1646824207BF0988E7
:1003900088456FF0020002B018BFBDE8F08F4FEA49
:1003A000980B02EB42000190C8F34000CDF800002A
:1003B00009EB8A01BBF1000F33D0019801EB820CED
:1003C00001EB80043B46E64601EBC2054FEA0B0019
:1003D00093ED000A401E81ED000A93ED010A01EB46
:1003E00002118CED000A93ED020A0CEB021C85ED64
:1003F000000A93ED030A05EB021584ED000A04EBF5
:10040000021403F11003E3D10EEB820000EB820033
:1004100000EB8201ABF10100504307EB0B1701EB3E
:10042000001118F0030C21D03B1FA1EB82011CF03E
:10043000010F06D093ED010A01EB82011B1D81ED36
:10044000000A009880B100BF93ED010A01EB82041D
:1004500001EBC20184ED000A93ED020A401E81ED1A
:10046000000A03F10803EFD107EB8C070AF1010042
:100470001FFA80FA701E0604360C99D102B00020D3
:10048000BDE8F08F40EA01039B0703D009E008C9EB
:10049000121F08C0042AFAD203E011F8013B00F849
:1004A000013B521EF9D27047D2B201E000F8012B95
:1004B000491EFBD270470022F6E710B513460A46E4
:1004C00004461946FFF7F0FF204610BD421C10F805
:1004D000011B0029FBD1801A70470000064C074D14
:1004E00006E0E06840F0010394E807009847103404
:1004F000AC42F6D3FFF74CFEECAE00080CAF0008A0
:1005000070B58C1810F8015B15F0070301D110F8D5
:10051000013B2A1106D110F8012B03E010F8016B02
:1005200001F8016B5B1EF9D12B0705D40023521E85
:100530000DD401F8013BFAE710F8013BCB1A921CED
:1005400003E013F8015B01F8015B521EF9D5A142EB
:10055000D8D3002070BD10B52DED028BB0EE408ACF
:10056000B0EE480A05F0A0FEBDEC028B10BD10B540
:100570002DED028BB0EE408AF0EE608AF0EE680A54
:10058000B0EE480A05F026FFBDEC028B10BD10B599
:100590002DED028BB0EE408AB0EE480AFFF76EFEFA
:1005A000BDEC028B10BDF0EE400AF5EEC00AF1EE94
:1005B00010FA02DDB0EE600A7047B1EE600AFBE7A8
:1005C00018B19FED020A80ED000A7047000000009C
:1005D00018B1B3EE060A80ED000A704770B52DED34
:1005E0000C8B84B006460C4615469FED990AF0EE3A
:1005F000408A9FED970AB0EE409A9FED950AF0EE83
:1006000040BA9FED930AF0EE409A9FED910AB0EE4A
:1006100040AA0EB104B11DB904B0BDEC0C8B70BD85
:100620008C48FFF7CDFF8C48FFF7D2FF8A48D0ED0A
:10063000000A9FED8A1A60EE810AB0EE600A00F0AF
:100640002DF9F0EE408A28EEA80AF0EE408A8248A2
:10065000D0ED000AB0EE001A60EE810A9FED7F1A1D
:1006600060EE810AB0EE600A00F018F9B0EE409A30
:1006700029EE090AB0EE409ADFED790AB7EE000ADA
:1006800000EEA80ADFED770A00EEC90ADFED760A70
:1006900020EE200A754880ED000A6E4890ED000AB1
:1006A000DFED730A80EE201AB7EE000A31EE000A81
:1006B00020EE000A6D48D0ED000A80EE801A6D48E9
:1006C00080ED001A94ED000AB5EEC00AF1EE10FAC2
:1006D0000DD194ED010AB5EEC00AF1EE10FA06D183
:1006E00094ED020AB5EEC00AF1EE10FA46D09FED85
:1006F000580AB0EE408A0020019002900390D4ED99
:10070000000A60EEA00A94ED011AD4ED011A41EE40
:10071000210A94ED021AD4ED021A41EE210AB0EE3C
:10072000600A00F0A9F8B0EE408A94ED000A20EECD
:10073000080A8DED010A94ED010A20EE080A8DEDFC
:10074000020A94ED020A20EE080A8DED030ADDED9F
:10075000010AF1EE600AB0EE600AFFF7FCFEF0EE6F
:10076000409A9DED031AF0EE410A9DED021AB0EE9B
:10077000410AFFF7FCFEB0EE40AA07E09FED340A05
:10078000F0EE409A9FED320AB0EE40AA95ED000AD5
:10079000B5EEC00AF1EE10FA0DD195ED010AB5EEF5
:1007A000C00AF1EE10FA06D195ED020AB5EEC00AC4
:1007B000F1EE10FA3CD0B0EE690A00F06FF8B0EE3E
:1007C000408AB0EE690AFFF7E2FEB0EE40DAB0EE22
:1007D0004A0A00F063F8F0EE40AAB0EE4A0AFFF7CA
:1007E000D6FEB0EE40BA28EE2A0AD5ED010A20EE78
:1007F000200AD5ED000A0DEE200A68EE0B0A95EDF1
:10080000021A00EE810AB0EE40CA95ED010A20EE10
:100810000B0AD5ED020A0AEEE00AF0EE40CAF0EE4D
:100820006C0AB0EE4C0AFFF7A2FEF0EE40BA03E00D
:100830009FED070AF0EE40BAB0EE4A1AF0EE690AF0
:10084000B0EE6B0A304606F013F900BFE4E6000094
:1008500000000000940800209808002035FA8E3C23
:10086000C1BFAD3B9DF8C5362F7C1C419C080020C4
:10087000506CC24AA008002010B52DED028BB0EEDE
:10088000408AB0EE480A05F0FBFEB7EE001AC1EE52
:10089000000AB0EE600ABDEC028B10BD10B52DED64
:1008A000028BB0EE408AB0EE480AFFF723FDBDECA4
:1008B000028B10BD2DE9F0412DED028B9AB005465B
:1008C000B0EE408A0E4617469846002017901890C2
:1008D00019901490159016904DB146B13FB1B8F1F2
:1008E000000F04D0B5EEC08AF1EE10FA05D1002059
:1008F0001AB0BDEC028BBDE8F08196ED000A8DEDDB
:10090000170A96ED010A8DED180A96ED020A8DED93
:10091000190A97ED000A8DED140A97ED010A8DED85
:10092000150A97ED020A8DED160A17AA14A9284692
:1009300005F0F0FE402104A8FFF7BDFD0020009067
:10094000019002900390002417A904A808F030FA3F
:1009500000BF30E004A800EB041090ED000AD5EDD4
:10096000000A20EE200A04A800EB0410D0ED010AD2
:1009700095ED011A00EE810A04A800EB0410D0EDF9
:10098000020A95ED021A00EE810A04A800EB041099
:10099000D0ED030A95ED031A00EE810A20EE080A55
:1009A000F0EE000A80EE201A684600EB840080ED2D
:1009B000001A601CC4B2042CCCDB002410E005EB50
:1009C000840090ED000A684600EB8400D0ED000A38
:1009D00030EE200A05EB840080ED000A601CC4B2F2
:1009E000042CECDB284607F06DFF012080E70000B7
:1009F00010B51021014801F01BFF10BD000002409E
:100A000010B51021014801F011FF10BD0000024097
:100A10007047000010B50121014801F009FF10BD29
:100A20000004024010B50121014801F0FFFE10BD95
:100A3000000402401CB50121042002F08FF90121BD
:100A4000880302F0CBF90421022002F065FC0521A5
:100A5000022002F061FC3020009000208DF804009C
:100A600001208DF8070003208DF805006946024833
:100A700001F068FE1CBD000000080240704710B580
:100A80000446204606F022FA10BD10B50446204662
:100A900006F042FA10BD000010B50024FFF7B8FFC1
:100AA000FFF7ECFF06F09AF8044306F031F904432F
:100AB00000204849088082E0FFF7B4FF0822464939
:100AC000002000F06DF9FFF7A5FF434800780F28DC
:100AD0006FD14148C078000200B23F49897808438D
:100AE0003E4908800846B0F9000000EE100AB8EE52
:100AF000C00A3B48D0ED000A20EE200A394880EDBC
:100B0000030A35484079000200B2334909790843A5
:100B1000324908800846B0F9000000EE100AB8EE2D
:100B2000C00A2F48D0ED000A20EE200A2D4880EDA3
:100B3000040A2948C079000200B22749897908438C
:100B4000264908800846B0F9000000EE100AB8EE09
:100B5000C00A2348D0ED000A20EE200A214880ED8B
:100B6000050A214890ED000A1E48D0ED030A9FEDCA
:100B70001F1A01EE600A1C4880ED000A90ED010A80
:100B80001848D0ED040A9FED191A01EE600A1648C4
:100B900080ED010A90ED020A1248D0ED050A9FEDA2
:100BA000131A01EE600A104880ED020A0120FFF7D7
:100BB00066FF08480088401C00B2064908800548C6
:100BC000B0F9000042F210718842FFF675AF20467E
:100BD00010BD0000AE070020B0070020AC070020C9
:100BE0007407002094D1012008B6012017B7D1382E
:100BF0002DE9FC4105460E46174600200090019065
:100C0000FFF7FEFE922000F0EBF806226946122064
:100C100000F0C6F8FFF7ECFEFFF7F2FE922000F0BE
:100C2000DFF806225A49122000F0BAF8FFF7E0FE7A
:100C30009DF80100000200B29DF8001040EA010496
:100C400000EE104AB8EEC00A5248D0ED000A20EE7D
:100C5000200A86ED000A9DF80300000200B29DF80C
:100C6000021040EA010400EE104AB8EEC00A4948FA
:100C7000D0ED000A20EE200A86ED010A9DF805005D
:100C8000000200B29DF8041040EA010400EE104A90
:100C9000B8EEC00A3F48D0ED000A20EE200A86EDEB
:100CA000020AFFF7BFFE08226946002000F078F82C
:100CB000FFF7B0FEFFF7B6FE08223749002000F02C
:100CC0006FF8FFF7A7FE9DF800000F2838D19DF8B8
:100CD0000300000200B29DF8021040EA010400EE99
:100CE000104AB8EEC00A2D48D0ED000A20EE200AC6
:100CF00085ED000A9DF80500000200B29DF8041081
:100D000040EA010400EE104AB8EEC00A2348D0EDD4
:100D1000000A20EE200A85ED010A9DF80700000276
:100D200000B29DF8061040EA010400EE104AB8EE49
:100D3000C00A1A48D0ED000A20EE200A85ED020A0A
:100D4000FFF75EFEA22000F04BF802226946222047
:100D500000F026F8FFF74CFE9DF80000C0009DF85B
:100D6000011040EA6114B4F5806F02DBA4F5006065
:100D700004B200EE104AF8EEC00AB4EE001AB3EE68
:100D8000070A00EE810A87ED000ABDE8FC81000039
:100D90009D07002070070020A30700207407002093
:100DA00070B506460C46154646F0800000F018F86F
:100DB00006E0552000F014F82070641C681EC5B2CF
:100DC000002DF6D170BD70B504460D4644F080008C
:100DD00000F006F8552000F003F8287070BD000000
:100DE0000246002106E01148814201D2491C01E07F
:100DF000002070470E48008900F002000028F2D061
:100E00000B488281002106E00848814201D2491C3A
:100E100001E00020EDE70648008900F0010000280D
:100E2000F2D003488089C0B2E3E7000080A2190035
:100E30000030014070B505460C462846FFF7D0FF4C
:100E40002046FFF7CDFF70BD0248034B0ECB0EC00E
:100E500003207047ECB1012000000A082DE9F041A1
:100E600004460D46154801F0E5FC0746134E01F017
:100E7000CDFB002001F01AFBF32001F011FB00BFB5
:100E80000221384601F024FB0928F9D10AE0217833
:100E9000304601F095FB092802D00020BDE8F08122
:100EA000761C641C281EA5F10105F0D1012001F07B
:100EB000FDFA01F07BFB0220F0E7000000000A08C9
:100EC00000BFFEE72DE9F0418AB004460D46174603
:100ED0001E46DDF840800121082001F03FFF01217E
:100EE000480601F05BFF0121480601F067FF002181
:100EF0004FF0007001F062FF0320089002208DF88F
:100F0000240000208DF8260001208DF82700032002
:100F10008DF8250008A92C4801F014FC09220021B5
:100F2000294801F057FC09220121274801F052FC11
:100F300001208DF81B0000208DF81C008DF81A0090
:100F40008DF81F008DF81D008DF81E008DF81640DD
:100F5000ADF814808DF818708DF819608DF8175061
:100F600005A91A4800F05DFA0020ADF80C008DF8D4
:100F70000F0001208DF810000020ADF80400ADF83E
:100F80000600ADF80800ADF80A008DF80E0001204B
:100F90008DF8110001A800F027F9012202210B4869
:100FA00000F036FA14208DF8000005208DF80100BD
:100FB00000208DF8020001208DF80300684601F042
:100FC00041FE0AB0BDE8F081000C02400064004020
:100FD00010B50221084800F08BF960B102210648E3
:100FE00000F0AEF8054A0021034800F0A4FA0349D6
:100FF000014802F051F810BD00640040E8AE012045
:101000002DE9F0418AB004460D4617461E46DDF82C
:1010100040800121022001F0A1FE0121880601F09B
:10102000BDFE0121880601F0C9FE00214FF080605D
:1010300001F0C4FE6020089002208DF824000020FA
:101040008DF8260001208DF8270003208DF825005B
:1010500008A92D4801F076FB092205212A4801F054
:10106000B9FB09220621284801F0B4FB01208DF8C4
:101070001B0000208DF81C008DF81A008DF81F0051
:101080008DF81D008DF81E008DF81640ADF8148007
:101090008DF818708DF819608DF8175005A91B4848
:1010A00000F0BFF90020ADF80C008DF80F00012012
:1010B0008DF810000020ADF80400ADF80600ADF882
:1010C0000800ADF80A000E208DF80E0001208DF802
:1010D000110001A800F088F8012202210B4800F05D
:1010E00097F940208DF8000005208DF801000020C0
:1010F0008DF8020001208DF80300684601F0A2FD82
:101100000AB0BDE8F0810000000402400068004021
:1011100010B50221084800F0EBF860B10221064842
:1011200000F00EF8054A0021034800F004FA0349D4
:10113000014801F0B1FF10BD00680040FCAE012085
:10114000B1F5007F3AD00FDC202928D006DC012938
:101150001CD004291DD0082940D11DE0402921D0F0
:10116000B1F5807F3AD126E0B1F5004F31D006DCF1
:10117000B1F5806F25D0B1F5006F2FD124E0B1F526
:10118000803F12D0B1F5003F28D111E0154A8260AE
:1011900025E00822C26022E01022C2601FE008227F
:1011A00002611CE01022026119E00822426016E090
:1011B0001022426013E00422426010E004224260E8
:1011C0000DE0042242600AE00022826104224260B3
:1011D00005E0002282610422426000E000BF00BFFF
:1011E000704700000101010010B50021837A01223F
:1011F00002FA03F13D4A126842F001023B4B1A60C9
:101200003A4A1C3212688A43384B1C331A60027BFC
:10121000CAB9364A0C3212688A43344B0C331A600E
:101220004288C38842EA0343304A4032847A42F813
:1012300034300288838842EA03432C4A4032847A5D
:1012400002EBC4025360027B012A19D1274A0C32F7
:1012500012680A43254B0C331A604288038842EA1D
:101260000343224A4032847A42F83430C288838869
:1012700042EA03431D4A4032847A02EBC4025360BF
:10128000C27A3AB9194A121D12688A43174B1B1DBC
:101290001A6006E0154A121D12680A43134B1B1D03
:1012A0001A60028932B9114A143212688A430F4B0C
:1012B00014331A600289012A06D10C4A14321268CA
:1012C0000A430A4B14331A60427B012A06D1074AAB
:1012D0001C3212680A43054B1C331A60034A126819
:1012E00022F00102014B1A6010BD000000660040B0
:1012F00070B504460D46002660692840002871D06C
:10130000B5F5807F5CD010DC082D35D006DC012DD2
:1013100020D0022D24D0042D72D127E0102D31D001
:10132000202D35D0402D6BD138E0B5F5004F60D081
:1013300009DCB5F5007F49D0B5F5806F4CD0B5F527
:10134000006F5DD14FE0B5F5803F2DD0B5F5003F82
:1013500056D12FE0A0682D4900F065F9064651E00E
:10136000E068032100F05FF906464BE0E0680821E1
:1013700000F059F9064645E0E068102100F053F905
:1013800006463FE02069032100F04DF9064639E0AA
:101390002069082100F047F9064633E02069102152
:1013A00000F041F906462DE06068082100F03BF9A5
:1013B000064627E06068102100F035F9064621E076
:1013C000A069012100F02FF906461BE0A069022167
:1013D00000F029F9064615E0A069042100F023F980
:1013E00006460FE00FE0A069702100F01CF90646E8
:1013F00008E06068042100F016F9064602E0FFE705
:10140000002600BF00E00026304670BD010101004B
:101410001AB143690B43436102E043698B43436163
:10142000704730B5024600200023146824F00204FF
:101430001460146844F00104146000E05B1C5468FC
:1014400004F001041CB94FF6FF74A342F6D15468AE
:1014500004F001040CB900206CE08C79012C04D15B
:10146000146844F08004146003E0146824F08004DD
:101470001460CC79012C04D1146844F04004146049
:1014800003E0146824F0400414600C7A012C04D1A9
:10149000146844F02004146003E0146824F020046D
:1014A00014604C7A012C04D1146844F010041460C8
:1014B00003E0146824F0100414608C7A012C04D129
:1014C000146844F00804146003E0146824F008046D
:1014D0001460CC7A012C04D1146844F00404146024
:1014E00003E0146824F0040414608C78A407CD7819
:1014F00044EA05640D7944EA05444D7944EA05540B
:101500000D886D1E2C43D461146824F0010414600E
:10151000002300E05B1C546804F001041CB14FF68A
:10152000FF74A342F6D1546804F001040CB100200A
:1015300000E0012030BD10B500F5D87303EB0113B6
:101540001B6803F004031372137A53B900F5D873C0
:1015500003EB01131B6840F2FF7404EA535313605A
:1015600009E000F5D87303EB01131B686FF06044CA
:1015700004EAD303536000F5D87303EB01131B682F
:1015800003F00203537200F5D87303EB01135B6899
:1015900003F00F03937200F5D87303EB01135B683C
:1015A0001B0AD37400F5D87303EB01139B68D37245
:1015B00000F5D87303EB01139B681C0A147300F544
:1015C000D87303EB01139B681C0C547300F5D8739C
:1015D00003EB01139B681B0E937300F5D87303EBA9
:1015E0000113DB68D37300F5D87303EB0113DB68D9
:1015F0001C0A147400F5D87303EB0113DB681C0C90
:10160000547400F5D87303EB0113DB681B0E93745D
:1016100021B9C36843F02003C36003E0036943F0CA
:101620002003036110BD0246002002EA01030BB152
:10163000012000E00020704770B506460C4604F01B
:101640008000802808D104F07F0000EB800106F5BF
:101650008E7000EBC10507E004F07F0000EB800115
:1016600006F55D7000EBC10504F07F00287004F002
:101670008000C00968702946304604F02EFA002028
:1016800070BD70B506460C4604F08000802808D175
:1016900004F07F0000EB800106F58E7000EBC105C1
:1016A00005E004EB840106F55D7000EBC105002048
:1016B000A87004F07F002870C4F3C0106870294639
:1016C000304604F0E2F9002070BD2DE9F0410646F5
:1016D0000D4690461F4605F08000802808D105F091
:1016E0007F0000EB800106F58E7000EBC10407E07F
:1016F00005F07F0000EB800106F55D7000EBC10492
:1017000005F07F00207005F08000C0096070C4F80B
:101710000880E770607808B12078E080022F01D15E
:10172000002020712146304604F063F90020BDE816
:10173000F0812DE9F04105460E461746984606F021
:101740007F0000EB800105F55D7000EBC104E760F0
:10175000C4F814800020A061607006F07F00207043
:10176000E878012800D12761207820B92146284651
:1017700004F063F803E02146284604F00FFA002045
:10178000BDE8F08108B500220092009A61F30A12C8
:10179000009202691268009B1A4303691A6008BD2F
:1017A00070B506460C4604F08000802808D104F08D
:1017B0007F0000EB800106F58E7000EBC10505E0AF
:1017C00004EB840106F55D7000EBC1050120A870F3
:1017D00004F07F002870C4F3C010687029463046BA
:1017E00004F0AAF9002070BD2DE9F04107460D462E
:1017F0001646984605F07F0000EB800107F58E70D5
:1018000000EBC1040120607005F07F002070E660ED
:1018100026610020A061C4F81480207820B92146F8
:10182000384604F00AF803E02146384604F0B6F9D9
:101830000020BDE8F081000030B587B00546594C66
:10184000284603F0C0FF01A801F0F2FA029CE86804
:10185000C0680590059820F4705005900598E968D7
:10186000C860284604F062FB03280BD10020A87052
:101870004FF40070A880059820F4705000F51050C7
:1018800005907EE00120A8704020A8804648844250
:1018900009D34648844206D2059820F4705000F5DA
:1018A000605005906DE04148844209D3404884422D
:1018B00006D2059820F4705000F55050059060E075
:1018C0003B48844209D33B48844206D2059820F421
:1018D000705000F54050059053E03648844209D3DB
:1018E0003548844206D2059820F4705000F53050F7
:1018F000059046E03048844209D33048844206D2FD
:10190000059820F4705000F52050059039E02B48E0
:10191000844209D32A48844206D2059820F47050A4
:1019200000F5105005902CE02548844209D3254845
:10193000844206D2059820F4705000F500500590BE
:101940001FE02048844209D31F48844206D20598EC
:1019500020F4705000F5E050059012E01A488442DF
:1019600009D31A48844206D2059820F4705000F535
:10197000C050059005E0059820F4705000F5A05087
:1019800005900598E968C86000200690069820F444
:10199000005000F5005006900698E9684861012063
:1019A00007B030BD007A030AC0E1E4000024F4006F
:1019B000E0EC040100C31801002D310140A44C01EA
:1019C00000366E0140E2950180C3C90160600B02E0
:1019D000F8B50546002400200090284604F0E7FAF8
:1019E000064681E006F0010000287BD0E1B22846DF
:1019F00000F0F6FA0090009800F0010030B30120EA
:101A000000FA04F72869406BB8432969486300204D
:101A10000090009820F00100401C009005F1180093
:101A200050F8240000998160E1B2324800684268B1
:101A300028469047E878012808D13CB940F21110B7
:101A4000405D042802D1284603F0A2FF0098C0F3AD
:101A5000C00060B100200090009820F0080008301D
:101A6000009005F1180050F824000099816000985A
:101A7000C0F3001060B100200090009820F010002A
:101A80001030009005F1180050F824000099816092
:101A90000098C0F3801060B100200090009820F002
:101AA00040004030009005F1180050F824000099E3
:101AB00081600098C0F3400060B100200090009861
:101AC00020F00200801C009005F1180050F824005E
:101AD000009981600098C0F3C01018B121462846D3
:101AE00000F092FA641C7608002E7FF47BAF012090
:101AF000F8BD0000800800207CB5044600250020C9
:101B00000190204604F05BFA06466FE006F0010003
:101B1000002869D0E9B2204604F059FA01900198F2
:101B200000F00100C8B300200190019820F00100EE
:101B3000401C019004F1540050F825000199816087
:101B4000E078012817D104F1540050F8250000690D
:101B5000009005EB850104F55D7000EBC100806825
:101B60000099C1F31201411A05EB850204F55D707D
:101B700000EBC2008161E9B21E480068026820469D
:101B80009047E078012808D13DB940F21110005D7E
:101B9000052802D1204603F0FBFE0198C0F3400067
:101BA00060B100200190019820F00200801C01909B
:101BB00004F1540050F82500019981600198C0F3A8
:101BC000C00088B10B480068816820468847002023
:101BD0000190019820F008000830019004F15400B1
:101BE00050F82500019981606D1C7608002E8DD17A
:101BF00001207CBD800800203EB50446A07A78B163
:101C0000D4F80C0100680090009820F002000090C9
:101C1000009820F0010000900099D4F80C010160B8
:101C200000200190019820F00100401C01902069E3
:101C300040680199884321694860094800688169C2
:101C40002046884700200290029820F0004000F1D2
:101C5000004002900298E168486101203EBD00000A
:101C6000800800207CB5044600200190019820F0F7
:101C7000100010300190E068806901998843E168A4
:101C80008861E068006A0090009800F00F0000EBA7
:101C9000800104F55D7000EBC1050098C0F343407E
:101CA00007282DD2DFE800F02C04051D1E2C1F0094
:101CB00027E00098C0F30A1090B10098C0F30A1210
:101CC0002046E96804F08DF9E8680099C1F30A112B
:101CD0000844E860A8690099C1F30A110844A861A2
:101CE0000FE00EE00DE0082204F2CC51204604F093
:101CF00078F9A8690099C1F30A110844A86100E0C5
:101D000000BF00BFE068806901990843E16888610D
:101D100001207CBD38B5044608480068C1682046EB
:101D2000884700200090009820F0080008300090BC
:101D30000098E1684861012038BD0000800800205B
:101D40001FB50446002000904FF48970005D00909C
:101D500023480068416920468847206980680190CF
:101D600000200390039820F4006000F500600390C9
:101D70000398E1684861A07A70B3019800F001000F
:101D800050B340F21510005D012825D19DF80000E8
:101D9000032821D100200290029820F00100401C6D
:101DA0000290D4F80C01006802990843D4F80C1191
:101DB0000860029820F00200801C0290D4F80C0108
:101DC000006802990843D4F80C11086005480068BF
:101DD00040F0060003490860012004B010BD000077
:101DE0008008002010ED00E030B587B004460020E8
:101DF000029006900590049003900190029820F0C4
:101E00000100401C029020694068029988432169C2
:101E100048600021204604F05FF800250BE0FF2118
:101E200004F1180050F82500816004F1540050F8C6
:101E3000250081606D1C6078A842F0D84FF0FF311A
:101E40002069816106986FF30F00401C0690069888
:101E500080B200F58030069006992069C16105982E
:101E600020F0080008300590059820F00100401C83
:101E70000590059820F00200801C059005992069C6
:101E80004161049820F00100401C0490049820F067
:101E9000080008300490049820F00200801C049090
:101EA000049920690161206900680390039820F477
:101EB000FE600390039920690160204603F068FDED
:101EC00000200190019820F4805000F5805001908E
:101ED0000198E16848610448006801692046884724
:101EE000012007B030BD0000800800202DE9F0413E
:101EF00006460F463946304604F088F801214FF473
:101F0000897081550021801C8155002511E005EB69
:101F1000850106F58E7000EBC1040120607025700C
:101F2000E5800020E0704020A0600020E06060615B
:101F30006D1C7078A842EAD8002510E005EB8501F9
:101F400006F55D7000EBC104002060702570E5802F
:101F5000E0704020A0600020E06060616D1C70783F
:101F6000A842EBD8304603F01DFC304603F04AFA95
:101F70000021304604F0B2F8304603F0D6FA30467D
:101F800003F072FFBDE8F08138B5044600200090F0
:101F900007480068C16920468847009820F48010EF
:101FA00000F5801000900098E1684861012038BD7C
:101FB0008008002038B504460020009007480068DB
:101FC000016A20468847009820F4001000F50010B0
:101FD00000900098E1684861012038BD8008002029
:101FE00030B5024615692B6915696C6B24FA01F549
:101FF00005F0010543EAC51302F1180555F8215013
:10200000AD6805EA030030BD2DE9F84306460F46EA
:1020100000250020009007EB870106F58E7000EB8D
:10202000C104D4E90501451AA068A84200D2A568F8
:10203000E81C4FEA900806F1180050F82700806964
:10204000009029E0D4E90501451AA068A84200D211
:10205000A568E81C4FEA9008ABB2FAB23046E168D6
:1020600004F063F8E0682844E060A0692844A061B7
:1020700006F1180050F8270080690090D4E90501A6
:10208000884209D12178012000FA01F93069406BBA
:1020900020EA090031694863009880B2404506D9BA
:1020A000D4E90510884202D260690028CAD1012013
:1020B000BDE8F8830246094B9A4201D2084801E084
:1020C0000648103801F000531BB1064B0B40C360AB
:1020D00002E0044B0B408360704700001064024034
:1020E000006002407D0F7D0F21B1026842F00102C5
:1020F000026003E0026822F0010202607047000003
:10210000016821F0010101600021016041608160EE
:10211000C1600161212141614A49884204D13D21C8
:10212000484A103A91608CE046491831884205D1FE
:102130004FF47461434A103A916082E04149303172
:10214000884205D14FF474113E4A103A916078E00C
:102150003C494831884205D14FF07461394A103A00
:1021600091606EE037496031884204D13649354A82
:10217000103AD16065E033497831884204D133495F
:10218000304A103AD1605CE02E499031884204D147
:102190002F492C4A103AD16053E02A49A83188428D
:1021A00005D14FF03D51274A103AD16049E0294905
:1021B000884204D13D21274A083A116041E025496F
:1021C0001831884205D14FF47461224A083A1160EF
:1021D00037E020493031884205D14FF474111D4A4F
:1021E000083A11602DE01B494831884205D14FF073
:1021F0007461184A083A116023E016496031884238
:1022000004D11149134A121F11601AE011497831A3
:10221000884204D10D490F4A121F116011E00D4987
:102220009031884204D10A490A4A121F116008E01D
:102230000849A831884204D14FF03D51054A121F88
:1022400011607047106002403D000020400F0020E8
:1022500000003D201064024021B1026842F4802257
:10226000026003E0026822F480220260704722B11B
:10227000036843F40023036003E0036823F40023AE
:102280000360016170470146486880B270470146AB
:1022900000200A6802F400220AB1012000E00020B8
:1022A0007047000010B500220268134B1A40CC683A
:1022B0000B6823434C6923438C692343CC69234334
:1022C0000C6A23434C6A23438C6A23434C6B23439D
:1022D0008C6B23431A430260426922F00702D1E962
:1022E0000B3423431A4342610B6943604B6883609C
:1022F0008B68C36010BD00003F801CF041607047D8
:1023000008B50B49496800910168009A511A00EE1E
:10231000901AB8EE601A0749D1ED000AF8EE600A8B
:10232000C1EE201AB0EE610A0099016008BD0000FC
:10233000001000E07C0100200D49096841F0807127
:102340000B4A116000210B4A51601146096841F0A7
:102350000101116008494143084A11600021084AFF
:1023600011609FED080A084981ED000A70470000DE
:10237000FCED00E0001000E040420F007C01002076
:102380008001002000000000840100207047000050
:1023900010B5012000F02AF8012814D10A2004F019
:1023A00095FD01210A4800F038FA60B90948008813
:1023B00009490860094800884860012008720C211A
:1023C0000548FEF74BFD012000F00AF810BD0000A3
:1023D000000002403CB00120ECB1012000B001201F
:1023E0000149086070470000143C0140014600208C
:1023F000034A12680A400AB1012000E00020704739
:10240000143C0140002123498279002A3AD00A462F
:10241000126803689A430B461A600A1D1268036823
:102420009A430B1D1A60027911440A6803681A4323
:102430000A60184A0832126803689A43154B083339
:102440001A601A1D126803689A43124B0C331A6003
:102450004279102A0ED11A1F126803681A430D4BD5
:1024600008331A601A1D126803681A43094B0C33AB
:102470001A600DE00749427911440A6803681A435B
:102480000A6005E0027911440A6803689A430A6009
:1024900070470000003C014080ED000A70470000DA
:1024A00001490860704700000C3C024030B1074908
:1024B000096841F48061054A116005E00349096833
:1024C00021F48061014A116070470000003C024025
:1024D00070B504460A460026092502B909E0012A1A
:1024E00001D1160205E0022A01D1160201E04FF4E3
:1024F000407600F09DF80546092D28D11548006862
:1025000020F44070134908600846006830430860B2
:102510000846006820F0F80008600846006844F0AB
:10252000020108430B4908600846006840F4803007
:10253000086000F07DF805460648006820F00200BB
:10254000044908600846006820F0F8000860284642
:1025500070BD0000103C024009201349096801F4D5
:102560008031B1F5803F01D101201CE00E4909689E
:1025700001F0100109B1062015E00B49096801F4CA
:10258000807109B102200EE00749096801F0E001FD
:1025900009B1072007E00449096801F0020109B107
:1025A000082000E0092070470C3C02400348006806
:1025B00040F000400149086070470000103C0240B4
:1025C00030B502460C46092500F032F80546092DC3
:1025D00017D10D48006820F440700B490860084688
:1025E000006808600846006840F001000860147048
:1025F00000F01EF805460448006820F0010002497A
:102600000860284630BD0000103C024005480068C4
:1026100000F0004028B1044802490C390860034822
:1026200008607047103C024023016745AB89EFCD3D
:1026300008B509200090FFF78FFF009002E0FFF738
:102640008BFF00909DF800000128F8D09DF8000055
:1026500008BD00001CB50121084600F07FFB0121E8
:10266000022000F07BFB0121042000F077FB012118
:10267000082000F073FB0121202000F06FFB0121F6
:10268000402000F06BFB0121802000F067FB01215E
:10269000080200F063FB4FF4E050009001208DF839
:1026A00004008DF8070000208DF806008DF8050065
:1026B0006946214800F046F84FF4E0511E4800F00A
:1026C000B7F80120009000208DF8040001208DF85B
:1026D00007006946194800F035F8102000900120E5
:1026E0008DF804008DF8070000208DF80600022008
:1026F0008DF805006946114800F024F810210F48B4
:1027000000F096F8012000908DF804008DF8070085
:1027100000208DF8060002208DF805006946084863
:1027200000F010F80121064800F082F8FEF782F967
:1027300000F05DFA1CBD0000001C024000000240D9
:1027400000040240F0B50A4600210023002400BF27
:102750003DE0012505FA01F3156805EA03049C42F2
:1027600034D105684F000326BE40B5430560157996
:102770004E00B5400668354305601579012D02D03D
:102780001579022D16D185684F000326BE40B5434A
:10279000856055794E00B54086683543856045684B
:1027A00001268E40B5434560456896798E40B6B2A5
:1027B00035434560C5684F000326BE40B543C5603C
:1027C000D5794E00B540C6683543C560491C10290F
:1027D000BFD3F0BDF0B5002300244D07ED0E02FA83
:1027E00005F3CE1000F1200555F826504E07F70EE0
:1027F0000F26BE40B543CF1000F1200646F8275003
:10280000CE1000F1200555F8265045EA0304CE10FD
:1028100000F1200545F82640F0BD0246002013696E
:102820000B400BB1012000E000207047418370474E
:1028300001837047014600205C4A914203D2B1F106
:10284000006F00D3B0E05A4A914204D2574A9142F5
:1028500001D30820A8E0574A914204D2544A914239
:1028600001D31020A0E0544A914204D2514A91422F
:1028700001D3182098E0514A914204D24E4A914225
:1028800001D3202090E04E4A914204D24B4A91421B
:1028900001D3282088E04B4A914204D2484A914211
:1028A00001D3302080E0484A914204D2454A914207
:1028B00001D3382078E0454A914204D2424A9142FD
:1028C00001D3402070E0424A914204D23F4A9142F3
:1028D00001D3482068E03F4A914204D23C4A9142E9
:1028E00001D3502060E0B1F1016F04D2394A914226
:1028F00001D3582058E0384A914204D2B1F1016F17
:1029000001D3802050E0354A914204D2324A9142AC
:1029100001D3882048E0324A914204D22F4A9142A2
:1029200001D3902040E02F4A914204D22C4A914298
:1029300001D3982038E02C4A914204D2294A91428E
:1029400001D3A02030E0294A914204D2264A914284
:1029500001D3A82028E0264A914204D2234A91427A
:1029600001D3B02020E0234A914204D2204A914270
:1029700001D3B82018E0204A914204D21D4A914266
:1029800001D3C02010E01D4A914204D21A4A91425C
:1029900001D3C82008E01A4A914204D2174A914252
:1029A00001D3D02000E0D82070470000004000088C
:1029B0000080000800C000080000010800000208B4
:1029C00000000408000006080000080800000A08CB
:1029D00000000C0800000E080040100800801008DD
:1029E00000C01008000011080000120800001408C0
:1029F000000016080000180800001A0800001C0853
:102A000000001E0870B50A480468001D0568001D16
:102A10000668344454B108220649204600F0C8F83C
:102A2000042204491031284600F0C2F870BD0000AD
:102A3000107AFF1F8E0000200148006870470000D8
:102A40001400002005480068401C0449086008463E
:102A50000068401C08B9002008607047140000207E
:102A600070B506463048007800285BD12F480068D2
:102A7000B0F5006F02D100202C4908602B48006897
:102A80002B490968884203D100202749087070BD8E
:102A90002648006826490968884206D92348006804
:102AA000C0F500602349086006E0214800681F491E
:102AB0000968401A1F4908601E480068402811D95B
:102AC0001A48008885B240241848006840301749E9
:102AD000086018480068403816490860012012490B
:102AE000087018E01148008885B21248008884B246
:102AF0000E4800680F49096808440C490860002026
:102B00000C490860402C03D102200749087002E0FC
:102B100001200549087008484219234681213046A2
:102B2000FEF762FE00BFB2E7D0070020C807002012
:102B3000C4070020CC07002043D2012000BFFEE7DD
:102B400070B505460C4645F2555000F02BF8284666
:102B500000F01CF8204600F01FF800F00FF800F01D
:102B600001F870BD4CF6CC40014908607047000088
:102B70000030004010B500F001F810BD4AF6AA2060
:102B8000014908607047000000300040014948607A
:102B90007047000000300040014988607047000025
:102BA00000300040014908607047000000300040DC
:102BB00030B50B46002100BF16E00A24B4EB107FAD
:102BC00005D9302404EB107403F8114005E04124CA
:102BD00004EB10740A3C03F81140000100254C007E
:102BE000641C1D554C1CE1B29142E6DB30BD0EB5B4
:102BF0000121880300F0F2F80021084600F08CFB68
:102C000006208DF8080001208DF8090002208DF8BB
:102C10000A0001208DF80B0002A800F013F8012033
:102C2000009000208DF8040010208DF80500012090
:102C30008DF806006846FFF7E5FB0EBD00BFFEE716
:102C40007047000070B5002100230F22C4781CB328
:102C5000174C246804F4E064C4F5E064C4F307216D
:102C6000C1F10404E3B20A4144789C40E1B28478A3
:102C7000144021430C07210E0E4C05786155047851
:102C800004F01F050124AC4005786D11AD0005F17D
:102C9000E025C5F8004109E0047804F01F0501248F
:102CA000AC40054D0678761145F8264070BD000011
:102CB0000CED00E000E400E080E100E002490143A7
:102CC000024A1160704700000000FA050CED00E0B8
:102CD00010B5024801F0EEFE10BD0000A80800206B
:102CE0002DE9F0412DED048B0446B0EE408AF0EE64
:102CF000608AB0EE419A0E4617461D46C5B9154882
:102D0000E063154820643A463146B0EE491AF0EEC9
:102D1000680AB0EE480A2046E36B9847B0EE491ABD
:102D2000F0EE680AB0EE480A2046216C88470CE0B5
:102D30000848E0633A463146B0EE491AF0EE680AB8
:102D4000B0EE480A2046E36B9847BDEC048BBDE823
:102D5000F0810000057C0008217C000829B1064AAA
:102D600012680243044B1A6004E0034A126882436B
:102D7000014B1A60704700003038024029B1064A02
:102D800012680243044B1A6004E0034A126882434B
:102D9000014B1A60704700003438024029B1064ADE
:102DA00012680243044B1A6004E0034A126882432B
:102DB000014B1A60704700004038024029B1064AB2
:102DC00012680243044B1A6004E0034A126882430B
:102DD000014B1A60704700002038024029B1064AB2
:102DE00012680243044B1A6004E0034A12688243EB
:102DF000014B1A60704700004438024029B1064A6E
:102E000012680243044B1A6004E0034A12688243CA
:102E1000014B1A60704700002438024003480068E4
:102E200040F080700149086070470000743802402B
:102E3000F0B5002100220024022500260223324F93
:102E40003F6807F00C0121B1042905D0082937D1CA
:102E500005E02E4F076036E02D4F076033E02A4F24
:102E60003F1F3F68C7F38056274F3F1F3F6807F05B
:102E70003F036EB1264FB7FBF3F7DFF88CC0ACF120
:102E8000040CDCF800C0CCF3881C07FB0CF40CE04D
:102E90001E4FB7FBF3F7DFF870C0ACF1040CDCF8A1
:102EA00000C0CCF3881C07FB0CF4174F3F1F3F6892
:102EB000C7F301477F1C7D00B4FBF5F7076002E014
:102EC000124F076000BF00BF0F4F3F6807F0F001CF
:102ED0000909104F7A5C0768D74047600A4F3F687E
:102EE00007F4E051890A0B4F7A5C4768D740876046
:102EF000054F3F6807F46041490B064F7A5C47680D
:102F0000D740C760F0BD0000083802400024F4003C
:102F1000001BB700C400002010B5014600220023AA
:102F200000204A11012A02D10A4C236808E0022A33
:102F300003D1084C7034236802E0064C74342368D3
:102F400001F01F02012494401C400CB1012000E05C
:102F5000002010BD0038024021B1028842F040023A
:102F6000028004E002884FF6BF731A400280704767
:102F700000B587B001210846FFF7F0FE01210220CD
:102F8000FFF7ECFE01210803FFF728FF05220421CB
:102F90002F48FFF71FFC052203212D48FFF71AFCDD
:102FA000052207212B48FFF715FC18200590022069
:102FB0008DF8180000208DF81A0001208DF81B00F4
:102FC00003208DF8190005A92148FFF7BBFB02205B
:102FD0008DF8180000208DF81A0001208DF81B00D4
:102FE00003208DF819008020059005A91948FFF7E6
:102FF000A9FB4FF48270ADF802000020ADF800008C
:10300000ADF804000220ADF806000120ADF808007C
:103010004002ADF80A002820ADF80C000020ADF801
:103020000E000720ADF810000B4880880A49888000
:103030000846008820F4005008806946064800F0E1
:103040000DF801210448FFF787FF07B000BD00001D
:1030500000040240000002400030014010B5002290
:10306000028802F441520B884C8823438C88234306
:10307000CC8823430C8923434C8923438C892343E5
:10308000CC8923431A430280838B4FF2FF74234081
:1030900083830B8A038210BD70B505460C469148A8
:1030A00085427DD12068B0F5017F13D007DCA0F206
:1030B000012060B101280BD0022872D109E0A0F2F2
:1030C000052088B301286DD00C286AD145E000BFE7
:1030D00000BF00BF2078401E834908700846007872
:1030E000C0EB0010814901EB800081697E480078C7
:1030F000C0EB00107D4A02EB80008069401C7A4AD8
:103100001278C2EB0212794B03EB820290613229F2
:103110000BD875490978C1EB01111A4602EB810001
:10312000214604F07FF80AE00FE06F490978C1EB0F
:1031300001116E4A02EB8100214603F055FF6A49F6
:103140000978481C03F0B6FF55E02146684803F0B3
:103150004BFF052003F0AEFF4DE06648C17A007BCF
:1031600041EA002000EE100AB8EEC00ADFED620A64
:1031700080EE201A614880ED0E1A5E48417B807B0C
:1031800041EA002000EE100AB8EEC00ADFED5A0A4C
:1031900080EE201A594880ED0F1A5648C17B02E094
:1031A0002AE027E01EE0007C41EA002000EE100A41
:1031B000B8EEC00ADFED500A80EE201A4F4880EDCD
:1031C000101A4C48417C807C41EA002000EE100A35
:1031D000B8EEC00ADFED480A80EE201A474880EDBD
:1031E000111A08E02146464803F0FEFE062003F0CF
:1031F00061FF00E000BF74E02068B0F5017F12D0ED
:1032000007DCA0F2012058B101280AD0022866D1BB
:1032100008E0A0F2052080B3B0F5FE7F5FD153E057
:1032200000BF00BF00BF2078401E36490870084626
:103230000078C0EB0010344901EB8000816931480F
:103240000078C0EB0010304A02EB80008069401C1F
:103250002C4A1278C2EB02122B4B03EB82029061D4
:1032600032290BD827490978C1EB01111A4602EB24
:103270008100214603F0D6FF0AE010E021490978D9
:10328000C1EB0111204A02EB8100214603F0ACFEA4
:103290001C49097801F1080003F00CFF20E01B48ED
:1032A00081698069401C194A9061322904D82146FD
:1032B000104603F0B7FF03E02146144803F094FEE4
:1032C000072003F0F7FE0BE01149002004E00A5C40
:1032D000104B1B681A54401C0428F8DB00E000BFA8
:1032E00000BF70BD006400407801002010AF0120D5
:1032F0003CB00120E8AE01200000C84244B20120E9
:1033000000B0012079010020B4B0012078B0012084
:1033100007AF01206801002030B500228B071C0F89
:103320000F2303FA04F20B4B8C1053F82430934311
:10333000084C8D1044F8253023468C1053F8243067
:103340008C07240F00FA04F42343024C8D1044F838
:10335000253030BD083801400CB5002001900090A8
:103360003448006840F480303249086000BF31487A
:10337000006800F4003000900198401C0190009813
:1033800018B90198B0F5A04FF1D12A48006800F4AF
:10339000003010B10120009001E000200090009862
:1033A000012846D123484030006840F08050214930
:1033B000403108602048006840F440401E490860E1
:1033C0001C48083000681B4908310860084600683E
:1033D00040F4004008600846006840F4A0500860CF
:1033E0001648091F0860081F006840F08070091F18
:1033F000086000BF0F48006800F000700028F9D096
:1034000040F205700E4908600A480830006820F054
:1034100003000849083108600846006840F00200CF
:10342000086000BF03480830006800F00C0008285E
:10343000F8D10CBD00380240007000400C54400729
:10344000003C0240042808D14FF0E021096941F016
:1034500004014FF0E022116107E04FF0E02109691B
:1034600021F004014FF0E0221161704710B506F021
:10347000CDFE012801D006F071FA10BD10B504464A
:103480006FF00400FFF7DEFFE11704EB5171C1F3A9
:10349000C701074A11701046007800EB4001C1EBEC
:1034A000C0104FF6FF7101EAC0000249088010BD4C
:1034B000500100205201002010B51548006840F46A
:1034C0007000134908601348006840F0010011497A
:1034D000086000200F49083108600E4800680E4956
:1034E00008400C4908600D48091D0860081F006865
:1034F00020F48020091F0860002006490C31086074
:10350000FFF72AFF4FF0006001498039086010BDC5
:1035100088ED00E000380240FFFFF6FE1030002486
:103520001CB50548022100238022CDE9001003A12B
:10353000054806F047FD1CBD180000207374617239
:10354000745F7461736B00006D8D000830B58BB0D3
:1035500005460C4601212020FFF700FC012148040C
:10356000FFF73CFC032206211F48FFF733F94020F8
:10357000099002208DF8280001208DF82B000020F2
:103580008DF82A0003208DF8290009A91648FFF7B5
:10359000D9F80795A0B2ADF818000020ADF82000CA
:1035A000ADF81A0006A9114800F0EEFA6020ADF857
:1035B00004000020ADF810000120ADF80600002046
:1035C000039001A9094800F089F90821074800F093
:1035D000C3F90121054800F00BF90121034800F06F
:1035E00048F90BB030BD0000001402400044014017
:1035F00030B58BB005460C4601211020FFF7AEFB1D
:1036000001210846FFF7EAFB012209213948FFF7AB
:10361000E1F801220B213748FFF7DCF801220D21E8
:103620003448FFF7D7F801220E213248FFF7D2F8CD
:103630004FF4D440099002208DF8280000208DF826
:103640002B008DF82A0003208DF8290009A92948AC
:10365000FFF778F80795A0B2ADF818000020ADF894
:1036600020008DF82200ADF81A0006A9224800F0CB
:103670008BFA0121204800F0BBF801A800F079FA8C
:103680006020ADF804000020ADF810000120ADF876
:1036900006004FF47A7003900020ADF8140001A9E1
:1036A000154800F01BF901A9134800F05FF901A9C2
:1036B000114800F0BBF901A90F4800F011FA0821E8
:1036C0000D4800F049F908210B4800F0A1F9082144
:1036D000094800F0FBF90821074800F03DFA0121F4
:1036E000054800F0C6F80121034800F0CEF80BB001
:1036F00030BD0000001002400000014010B5012163
:10370000054800F0D1F808B1FFF79CF90121024803
:1037100000F0ACF810BD00000008004030B58BB0E0
:1037200005460C4601210802FFF718FB0121022083
:10373000FFF754FB032207212B48FFF74BF88020AB
:10374000099002208DF8280001208DF82B00002020
:103750008DF82A0003208DF8290009A92248FEF7D8
:10376000F1FF0795A0B2ADF818000020ADF82000D9
:10377000ADF81A0006A91D4800F006FA01A800F0ED
:10378000F8F96020ADF804000020ADF81000012029
:10379000ADF806004FF4FA60039001A9134800F059
:1037A0009DF801A9114800F0E1F801A90F4800F0C7
:1037B0003DF908210D4800F0CFF808210B4800F032
:1037C00027F90821094800F081F90121074800F094
:1037D0000FF80121054800F058F80121034800F0D6
:1037E00048F80BB030BD000000200240000401404A
:1037F00021B1028842F08002028004E002884FF684
:103800007F731A40028070477FB505460C46012140
:103810000420FFF7C3FA0295ADF804400020ADF88C
:103820000C00ADF8060001A90F4800F0ADF9012227
:1038300011460D4800F049F801210B4800F016F838
:103840001E208DF8000000208DF801008DF8020088
:1038500001208DF803006846FFF7F4F901210248C2
:1038600000F007F87FBD000000080040CA43028254
:10387000704721B1028842F00102028004E0028810
:103880004FF6FE731A400280704731B1B0F8442001
:1038900042F40042A0F8442005E0B0F84420C2F30E
:1038A0000E02A0F84420704730B5024600200023E5
:1038B0000024158A05EA0103958905EA010413B17C
:1038C0000CB1012000E0002030BD1AB183890B4308
:1038D000838102E083898B438381704770B5002424
:1038E00000220023058C4FF6FE7635400584028CBD
:1038F0008388048B4FF68F752C40B51E2C400D88A5
:103900002C43751E2A408D892A434D882A43104D29
:10391000A84202D00F4DA84213D14FF6F7752A40A6
:10392000CD892A434FF6FB752A408D882A434FF6EE
:10393000FF652B404FF6FF552B400D8A2B434D8AD8
:103940002B43838004838D684563028470BD00002F
:1039500000000140000401400A460021018B4FF69F
:10396000F7731940114301837047000070B50024BC
:1039700000220023058C4FF6EF7635400584028C3B
:103980008388048B48F6FF752C404FF6FF452C408A
:103990000D884FF6FF7606EA05252C434FF6DF75B6
:1039A0002A408D8906EA05152A434D8806EA051541
:1039B0002A43154DA84202D0144DA8421DD14FF6FE
:1039C0007F752A40CD894FF6FF7606EA05152A4312
:1039D0004FF6BF752A408D8806EA05152A434FF633
:1039E000FF352B404FF2FF752B400D8A06EA850507
:1039F0002B434D8A06EA85052B43838004838D681B
:103A00008563028470BD0000000001400004014095
:103A10000A460021018B4FF2FF7319404FF6FF73E6
:103A200003EA0223194301837047000070B50024A4
:103A300000220023058C4FF6FF6635400584028C7A
:103A40008388848B4FF68F752C404FF6FC752C4085
:103A50000D882C434FF6FF552A408D894FF6FF768F
:103A600006EA05252A434D8806EA05252A43154D11
:103A7000A84202D0144DA8421DD14FF2FF752A4032
:103A8000CD894FF6FF7606EA05252A434FF6FF3526
:103A90002A408D8806EA05252A434EF6FF752B40FD
:103AA0004DF6FF752B400D8A06EA05152B434D8A0E
:103AB00006EA05152B43838084838D68C5630284E1
:103AC00070BD000000000140000401400A460021D2
:103AD000818B4FF6F77319401143818370470000C3
:103AE00070B5002200230024058C4EF6FF76354089
:103AF0000584038C8488828B48F6FF752A404FF634
:103B0000FF452A400D884FF6FF7606EA05252A4331
:103B10004DF6FF752B408D8906EA05352B434D8800
:103B200006EA05352B430A4DA84202D0094DA842AA
:103B300008D14BF6FF752C400D8A4FF6FF7606EA4A
:103B400085152C43848082838D680564038470BD51
:103B500000000140000401400A460021818B4FF221
:103B6000FF7319404FF6FF7303EA02231943818361
:103B70007047002101804180818081608181C18105
:103B8000018241827047000000220288184B98424F
:103B90000ED0184B98420BD0B0F1804F08D0164B86
:103BA000984205D0154B984202D0154B984204D14B
:103BB0004FF68F731A404B881A43124B984207D026
:103BC000114B984204D04FF6FF431A400B891A4319
:103BD00002804B68C3620B880385054B984202D074
:103BE000044B984201D18B7A03860123838270476C
:103BF00000000140000401400004004000080040B3
:103C0000000C0040001000400014004000B587B0D8
:103C100001210220FFF7A2F801210846FFF79EF8D4
:103C200001211020FFF7DAF801211020FFF7E6F854
:103C300000211020FFF7E2F8072211463148FEF775
:103C4000C9FD072209213048FEF7C4FD80200590F8
:103C500002208DF8180000208DF81A008DF81B0046
:103C600003208DF8190005A92648FEF76BFD4FF4D7
:103C70000070059002208DF8180000208DF81A00C1
:103C80008DF81B0003208DF8190005A91E48FEF7CA
:103C900059FD1E4800F018FB4FF4E1300190002060
:103CA000ADF80800ADF80A00ADF80C000C20ADF836
:103CB0000E000020ADF8100001A9144800F0D8FB58
:103CC0001021124800F0D2FA012240F224410F489C
:103CD00000F0A9FB01210D4800F0E0FA25208DF845
:103CE000000005208DF8010000208DF80200012061
:103CF0008DF803006846FEF7A5FF00F009F807B04D
:103D000000BD00000004024000000240001001401D
:103D100000B58FB001218805FFF720F8012240216E
:103D20001C4800F0C7FA1C48FEF7EAF94FF00060A3
:103D300000901848001D0190184802900020039040
:103D40004FF400700490002005904FF480600690BE
:103D500000200790089009900A900B9003200C9087
:103D600000200D900E9069460B48FEF79BFA00224A
:103D70000B490948FEF77BFA01210748FEF76CFA68
:103D800000210548FEF7B0F901210348FEF7ACF920
:103D90000FB000BD0010014088640240BAAA0120A3
:103DA000BAAC01201CB5002001901021164800F08B
:103DB00003FB38B340F22441134800F00AFB08B378
:103DC000114800F0BFFB10210F4800F04FFA0C2003
:103DD00003F070F90D480068A0B101A8002301228A
:103DE000082100900948006806F01CF9019848B1C4
:103DF000019838B14FF0805005490860BFF34F8FEC
:103E0000BFF36F8F1CBD0000001001404C0000206C
:103E100004ED00E00EB501210846FEF79FFF0121E9
:103E20000420FEF79BFF01218804FEF7B7FF012164
:103E30008804FEF7C3FF00214FF48020FEF7BEFF89
:103E400007220B212648FEF7C5FC4FF400600190C5
:103E500002208DF8080000208DF80A0001208DF85E
:103E60000B0003208DF8090001A91D48FEF76AFC2C
:103E70001C4800F029FA1C481C4908600020888072
:103E8000C8804FF480600881042048810020888128
:103E9000144800F0EDFA0121124800F0FFF910215A
:103EA000104800F0E3F910210E4800F0E8F9012273
:103EB00040F224410B4800F0B6FA27208DF80000AC
:103EC00005208DF8010000208DF8020001208DF8FA
:103ED00003006846FEF7B6FE00F00AF80EBD0000CB
:103EE0000008024000480040A086010028A20120EE
:103EF00000B58FB001214805FEF730FF01224021B7
:103F00001E4800F0D7F91E48FEF7FAF84FF000609F
:103F100000901A48001D01901A480290002003905A
:103F200024200490002005904FF48060069000202B
:103F3000079008904FF48070099000200A900B9031
:103F400003200C9000200D900E9069460C48FEF75F
:103F5000A9F900220B4924310948FEF788F901210B
:103F60000748FEF779F900210548FEF7BDF8012161
:103F70000348FEF7B9F80FB000BD0000004800404C
:103F8000286002404EA2012010B51021394800F0EF
:103F900013FA00286CD040F22441364800F019FA98
:103FA000002865D0334800F0CDFA3348FEF76FF9AA
:103FB00050BB00213048FEF797F82F48FEF763F911
:103FC000C0F124002D49088008460088242806D125
:103FD0002B492C4804F0C2FC0A2003F06BF8242182
:103FE0002548FEF78BF924482838806A40F40020E1
:103FF00021492839886224491F48FEF75BF80121CE
:104000001D48FEF771F82BE000211B48FEF76CF805
:1040100019481830FEF737F9C0F124001749088015
:1040200008460088242807D115492431154804F092
:1040300095FC0A2003F03EF824210F48FEF75EF9B4
:104040000D482838806A20F400200B4928398862FE
:104050000D490948FEF72EF801210748FEF744F8FC
:104060001021044800F002F91021024800F007F97D
:1040700010BD0000004800402860024054010020AC
:104080004EA2012038A201200000301000B587B0F8
:1040900001214020FEF762FE01212020FEF79EFE56
:1040A00001212020FEF7AAFE00212020FEF7A6FE17
:1040B00008220E212848FEF78DFB082209212648F8
:1040C000FEF788FB4FF48440059002208DF818001D
:1040D00000208DF81A008DF81B0003208DF81900C0
:1040E00005A91D48FEF72EFB1C4800F0EDF84FF423
:1040F000E13001900020ADF80800ADF80A00ADF8FD
:104100000C000C20ADF80E000020ADF8100001A945
:10411000124800F0ADF91021104800F0A7F8012274
:1041200040F224410D4800F07EF901210B4800F0D7
:10413000B5F847208DF8000005208DF8010000201B
:104140008DF8020001208DF803006846FEF77AFD25
:1041500000F006F807B000BD00180240001401404E
:1041600000B58FB001218805FEF7F8FD012240213E
:104170001C4800F09FF81C48FDF7C2FF4FF020607C
:1041800000901848001D01901848029000200390EC
:104190004FF480600490002005904FF480600690FA
:1041A00000200790089009900A900B9003200C9033
:1041B00000200D900E9069460B48FEF773F8002220
:1041C0000B490948FEF753F801210748FEF744F868
:1041D00000210548FDF788FF01210348FDF784FF12
:1041E0000FB000BD0014014028640240BAA20120B3
:1041F000BAA601201CB5002001901021184800F03B
:10420000DBF860B340F22441154800F0E2F830B327
:10421000134800F097F91021114800F027F840F2F8
:1042200025510F4800F02BF80B2002F043FF0D48FA
:104230000068A0B101A800230122022100900948D2
:10424000006805F0EFFE019848B1019838B14FF0D1
:10425000805005490860BFF34F8FBFF36F8F1CBDBF
:10426000001401404400002004ED00E001F400725D
:10427000B2F5007F00D100BFCA430280704710B57D
:104280000022002340F66A14A14200D100BF0A12A6
:1042900001249440A3B2DC43048010BD21B1828983
:1042A00042F40052828104E082894DF6FF731A4085
:1042B000828170471AB1838A0B43838202E0838A2A
:1042C0008B4383827047000010B504463248844215
:1042D00008D101211020FEF791FD00211020FEF7EA
:1042E0008DFD57E02D48844209D101214804FEF795
:1042F00065FD00214FF40030FEF760FD4AE02848DC
:10430000844209D101218804FEF758FD00214FF4B1
:104310008020FEF753FD3DE02248844209D101216F
:10432000C804FEF74BFD00214FF40020FEF746FDC8
:1043300030E01D48844209D101210805FEF73EFD09
:1043400000214FF48010FEF739FD23E01748844226
:1043500008D101212020FEF751FD00212020FEF789
:104360004DFD17E01248844209D101218807FEF76C
:1043700025FD00214FF08040FEF720FD0AE00D48AA
:10438000844207D101214005FEF718FD0021600598
:10439000FEF714FD10BD0000001001400044004075
:1043A00000480040004C0040005000400014014014
:1043B00000780040007C004002460020B1F5007FFC
:1043C00000D100BF13880B400BB1012000E000209A
:1043D000704770B50246002400230025002040F6F7
:1043E0006A16B14200D100BFC1F3421501F01F03AC
:1043F000012606FA03F3012D02D19689334006E027
:10440000022D02D1168A334001E0968A33400C1205
:10441000012606FA04F41688344013B10CB10120C9
:1044200000E0002070BDF0B5034600240026002502
:10443000002040F66A17B94200D100BF1846C1F308
:10444000421401F01F06012707FA06F5012C01D1DD
:104450000C3004E0022C01D1103000E014301AB10D
:1044600007682F43076002E00768AF430760F0BDAD
:104470002DE9FF4705460E460024A14600BFA04691
:10448000B08900B100BF2C8A24F44054F088044362
:104490002C82AC8941F20C608443B0883189084396
:1044A000718908430443AC81AC8A24F44074B08918
:1044B0000443AC826846FEF7BBFC2048854202D02C
:1044C0001F48854202D1DDF80C9001E0DDF808902C
:1044D000A88900F4004040B109EBC90000EB0910C5
:1044E00031684900B0FBF1F707E009EBC90000EBC8
:1044F000091031688900B0FBF1F76420B7FBF0F0D8
:1045000004012009642101FB1078A88900F400400F
:1045100040B1322000EBC800B0FBF1F000F0070022
:10452000044308E0322000EB08106421B0FBF1F0F6
:1045300000F00F0004432C81BDE8FF87001001400C
:104540000014014001468888C0F30800704770B528
:1045500004460D46D4F8E4052946426820469047B3
:10456000002070BD70B504460D464FF48970005DA3
:10457000022802D0032812D100E000BF6888012879
:104580000CD100214FF48C700151D4F8E405294678
:10459000826820469047204600F075F804E02946DE
:1045A000204600F021F800BF00BF70BD2DE9F041AA
:1045B00006460C46154600272B462246002130466B
:1045C000FDF7B7F83846BDE8F0812DE9F041064621
:1045D0000C46154600272B46224600213046FDF7A3
:1045E00003F93846BDE8F08170B504460D468021D8
:1045F0002046FDF7D5F800212046FDF7D1F82046EA
:1046000001F0C6F970BD2DE9F04104460E4615468D
:104610000027C4F89453C4F89053032140F21110BA
:1046200001552B46324600212046FDF782F83846D8
:10463000BDE8F08170B504460025052140F2111057
:10464000015500231A4619462046FDF772F8204608
:1046500001F09EF9284670BD2DE9F04104460E4652
:1046600015460027C4F83C51C4F83851022140F2E5
:10467000111001552B46324600212046FDF7B4F8B3
:104680003846BDE8F08170B504460025042140F2AB
:104690001110015500231A4619462046FDF7A4F8CB
:1046A000204601F075F9284670BD70B505460E46E6
:1046B000002E5DD105F58E7440F21110405D022888
:1046C00049D1A168E069884217D9A168E069401A18
:1046D000E061E878012803D1D4E902100844E060E1
:1046E000A08B82B22846E168FFF76FFF00231A46CD
:1046F00019462846FDF71DF82DE0A168206AB0FB99
:10470000F1F201FB1200A8B9A168206A884211D316
:10471000D4E9080188420DD2002211462846FFF74D
:1047200054FF0020606200231A4619462846FDF710
:1047300000F810E0D5F8E405C06848B14FF489707E
:10474000405D032804D1D5F8E405C16828468847B0
:104750002846FFF76FFF4FF48B70405D012816D19C
:10476000284600F063FA00214FF48B7041550EE0AB
:10477000D5F8E405406950B14FF48970405D0328D5
:1047800005D1D5F8E4053146426928469047002016
:1047900070BD70B505460E46A6BB05F55D7440F2CA
:1047A0001110405D03283DD1A168E069884217D906
:1047B000A168E069401AE061E878012803D1D4E9F2
:1047C00002100844E060A368E069984201D2E06901
:1047D00000E0A06882B22846E168FFF7E7FE21E02A
:1047E000D5F8E405006948B14FF48970405D0328AD
:1047F00004D1D5F8E4050169284688472846FFF723
:1048000042FF0FE0FFE7D5F8E405806950B14FF4AF
:104810008970405D032805D1D5F8E40531468269E9
:1048200028469047002070BD0146002070470000D8
:1048300070B504460D46E888012804D02946204674
:10484000FFF7D2FE1AE04FF48970005D022802D013
:1048500003280DD105E0012209492046FFF7FCFE9F
:104860000BE0012204F588712046FFF7F5FE04E015
:1048700029462046FFF7B8FE00BF00BF70BD00000C
:1048800088080020F8B504460E46F088009070882D
:104890000012082862D2DFE800F061040C186161A0
:1048A000575CA078D4F8EC150A686946904705462D
:1048B00059E0A078D4F8E4158A6A6946904705461D
:1048C00002216970C4F8F0554DE0B078062834D262
:1048D000DFE800F0030B131B232BA078D4F8EC15B2
:1048E0004A686946904705462CE0A078D4F8EC1554
:1048F0008A6869469047054624E0A078D4F8EC150C
:10490000CA686946904705461CE0A078D4F8EC15C3
:104910000A6969469047054614E0A078D4F8EC157A
:104920004A696946904705460CE0A078D4F8EC1532
:104930008A6969469047054604E031462046FFF7FC
:1049400053FEF8BD00BF0EE031462046FFF74CFE97
:10495000F7E731462046FFF747FEF2E731462046AB
:10496000FFF742FEEDE700BFBDF8000088B1F08818
:1049700078B1F088BDF80010884202DDBDF8000073
:1049800000E0F0880090BDF8002029462046FFF79F
:1049900063FE00BFD5E70146002002E0421CD0B212
:1049A000491C0A78002AF9D17047000070B5044606
:1049B0000D464FF48970005D022802D0032813D100
:1049C00000E000BF01200C4908604FF48C700059D2
:1049D00020B10846006840F0020008600222064943
:1049E0002046FFF739FE04E029462046FFF7FCFD8C
:1049F00000BF00BF70BD00008C0800202DE9F04111
:104A000004460D4617460026FCB12046FFF7C3FFBB
:104A1000022101EB400038803A783046711CCEB25A
:104A20002A5403223046711CCEB22A540AE014F8EC
:104A3000012B3046711CCEB22A5400223046711C24
:104A4000CEB22A5420780028F1D1BDE8F0812DE9BA
:104A5000F04104460F4615461E46DDF818802046F4
:104A600000F08EFC2046FFF7DFFEC4F8E465C4F8D2
:104A7000E885C4F8EC5539462046FDF737FAD4F8F6
:104A8000E81508688047204600F068FCBDE8F08122
:104A900010B50446D4F8E405016A20468847002092
:104AA00010BD10B50446D4F8E405416A2046884795
:104AB000002010BD7CB505460024284601F064FAAC
:104AC000002865D0284601F06AFA0190019808B9DB
:104AD00000207CBD0198C0F3C04018B12846FDF706
:104AE0000BF804430198C0F3804018B12846FCF746
:104AF0006FFF04430198C0F3400050B100200090C4
:104B0000009820F00200801C00900098E96848613D
:104B100000BF0198C00F18B12846FDF76DF8044397
:104B20000198C0F3C02018B12846FDF709F90443E5
:104B30000198C0F3C00018B12846FDF7EBF8044314
:104B40000198C0F3001018B12846FDF78BF8044314
:104B50000198C0F3003018B12846FDF745F9044329
:104B60000198C0F3403018B12846FCF765FE0443B5
:104B70000198C0F3005018B12846FDF705FA044328
:104B80000198C0F3405018B12846FDF713FA0443CA
:104B900020469EE790F8CC250A7090F8CD254A7003
:104BA00090F8CE3590F8CF2503EB02224A8090F89A
:104BB000D03590F8D12503EB02228A8090F8D235C7
:104BC00090F8D32503EB0222CA80CB884FF4A07261
:104BD0001350012340F211121354704710B50446CC
:104BE0000023402219462046FCF76FFD0023402297
:104BF00080212046FCF769FD01214FF489700155A1
:104C0000A078D4F8E82551688847002010BD10B579
:104C10000446D4F8E8150869804740F21310015D96
:104C2000401E015503210155002010BD01460348D7
:104C300002680869426000207047000050080020A8
:104C400010B50446D4F8E405C06920B1D4F8E405F1
:104C5000C16920468847002010BD70B504460D4646
:104C6000A88818BBE88808BBA87800F07F064FF436
:104C70008970005D032804D129462046FFF7B4FC63
:104C800018E04FF48A70065531462046FCF77AFD4D
:104C90002046FFF7F8FC26B102214FF48970015538
:104CA00008E001214FF48970015503E029462046B0
:104CB000FFF79AFC70BD70B504460D46D4F8E405C4
:104CC0002946026820469047D4F8E815886880474E
:104CD000002070BD70B504460D46A87830490870B4
:104CE00008460078022804DD29462046FFF77CFCB0
:104CF00055E04FF48970005D022802D0032848D1A6
:104D000017E02748007880B12548007884F8100122
:104D100003214FF489700155214801782046FFF79F
:104D2000CAFF2046FFF7AFFC02E02046FFF7ABFCCE
:104D300034E01B48007880B902214FF48970015596
:104D40001748007884F81001154801782046FFF7CD
:104D5000FEFB2046FFF797FC1AE094F8100110497B
:104D60000978884211D094F810112046FFF7EFFB24
:104D70000B48007884F81001094801782046FFF7B5
:104D80009AFF2046FFF77FFC02E02046FFF77BFCFE
:104D900004E029462046FFF727FC00BF00BF70BD96
:104DA00090080020F8B504460D46002668880128C2
:104DB0000DD101214FF48C700151D4F8E40529463E
:104DC0008268204690472046FFF75DFC3FE06888F8
:104DD00002283CD12879D0BB206940680090A8887F
:104DE0000612062E22D2DFE806F02103090F151B5A
:104DF000009820F07000103000901DE0009820F026
:104E000070002030009017E0009820F070003030E3
:104E1000009011E0009820F07000403000900BE00E
:104E2000009820F070005030009005E0009820F0CD
:104E300070001030009000BF00BF0548009901606D
:104E400001214FF48B7001552046FFF71CFCF8BD83
:104E5000500800201CB5044669462046FFF79AFE1C
:104E60009DF8000000F01F0020B1012807D00228A3
:104E70000FD109E06946204600F016F811E06946B6
:104E8000204600F007F90CE06946204600F046F89D
:104E900007E09DF8000000F080012046FCF780FC50
:104EA00000BF00BF00201CBD70B505460C460026A3
:104EB00060780A2829D2DFE800F01923281E280A82
:104EC0000528140F21462846FFF7DCFC22E0214686
:104ED0002846FFF7C2FE1DE021462846FFF7FAFEEE
:104EE00018E021462846FFF7A3FC13E02146284698
:104EF000FFF75CFD0EE021462846FFF753FF09E06F
:104F000021462846FFF72EFB04E021462846FFF7FE
:104F10006BFB00BF00BF304670BD00002DE9F041C3
:104F200005460E4600273479307800F060002028CE
:104F300008D1D5F8E40531468268284690473846BE
:104F4000BDE8F0817078002857D001282BD00328C5
:104F500075D14FF48970405D022802D003281BD11F
:104F600007E02CB1802C03D021462846FCF718FC22
:104F700017E0708830B92CB1802C03D02146284628
:104F8000FCF70EFCD5F8E4053146826828469047C8
:104F90002846FFF778FB04E031462846FFF724FB5C
:104FA00000BF00BF70E04FF48970405D022802D05E
:104FB00003281BD107E02CB1802C03D021462846C2
:104FC000FCF7EEFB17E0708878B95CB1802C09D053
:104FD00021462846FCF755FBD5F8E40531468268A2
:104FE000284690472846FFF74EFB04E03146284606
:104FF000FFF7FAFA00BF00BF46E04FF48970405D4A
:10500000022802D0032837D107E02CB1802C03D02E
:1050100021462846FCF7C4FB33E004F080008028DA
:1050200012D104F07F0000EB800105F58E7000EBDB
:10503000C100807820B101201549086016E022E007
:1050400000201349086011E004F0800070B904EBFF
:10505000840105F55D7000EBC100807818B1012076
:105060000B49086002E00020094908600222084953
:105070002846FFF7F1FA04E031462846FFF7B4FA74
:1050800000BF00BF00E000BF00BF384658E7000087
:105090008408002070B504460D4600264FF4897040
:1050A000005D032814D1287902280CDCD4F8E4052B
:1050B0002946826820469047E88840B93EB9204694
:1050C000FFF7E1FA03E029462046FFF78DFA04E0F6
:1050D00029462046FFF788FA00BF00BF304670BD62
:1050E00010B504464FF48970015D401C0155042140
:1050F000401E0155D4F8E815C8688047002010BD4F
:1051000070B505460C462DB92246064906A0FFF7A4
:1051100075FC04E02246034903A0FFF76FFC014839
:1051200070BD00009C0E002056435020436F6E66F9
:105130006967000000A07047555342445F555352C1
:105140005F446576696365436F6E6669677572650E
:10515000640D0A0000A07047555342445F555352F6
:105160005F446576696365436F6E6E6563746564FD
:105170000D0A000002461220088001487047000016
:105180006C00002000A07047555342445F555352B5
:105190005F446576696365446973636F6E6E6563CA
:1051A0007465640D0A00000010B506A10BA211A3DE
:1051B00010B1012802D100E001E000E000BF00BF13
:1051C00010BD00005553425F4F54475F5350454553
:1051D000445F484947480D0A000000005553425FAC
:1051E0004F54475F53504545445F46554C4C0D0A5C
:1051F00000000000555342445F5553525F446576AA
:105200006963655265736574204572726F720D0A29
:105210000000000000A07047555342445F555352B0
:105220005F446576696365526573756D65640D0AE3
:105230000000000000A07047555342445F55535290
:105240005F44657669636553757370656E64656404
:105250000D0A000000A07047555342445F55535259
:105260005F496E69740D0A0070B505460C462DB98C
:105270002246064906A0FFF7C1FB04E02246034987
:1052800003A0FFF7BBFB014870BD00009C0E00208F
:1052900056435020496E7465726661636500000074
:1052A0000246042008800148704700008800002062
:1052B00070B505460C462246024903A0FFF79EFB47
:1052C000004870BD9C0E00204177616B656C696F72
:1052D0006E00000070B505460C462DB92246064901
:1052E00006A0FFF78BFB04E0224603490AA0FFF764
:1052F00085FB014870BD00009C0E00205669727449
:1053000075616C20436F6D506F727420696E204818
:1053100053206D6F646500005669727475616C206E
:10532000436F6D506F727420696E204653204D6F2D
:105330006465000070B505460C461A202080FDF714
:1053400061FB014870BD00008C0000200246432034
:1053500008800148704700000808002038B504465E
:1053600043208DF8000005208DF8010000208DF805
:10537000020001208DF803006846FDF763FC38BD8C
:105380001CB5044601218803FDF728FD01210846CC
:10539000FDF7E4FC4FF4C050009002208DF80400AB
:1053A00003208DF8050000208DF806008DF8070019
:1053B00069460948FDF7C6F90A220B210648FDF7A0
:1053C00009FA0A220C210448FDF704FA0121802081
:1053D000FDF7D4FC1CBD00000000024010B50446DF
:1053E0004FF47A7104FB01F000F001F810BD0021C8
:1053F000A82300FB03F200BF4B1C1946934200D9BF
:105400007047F9E73EB50446002500200290019060
:105410000090207A01283DD1E068806B01900198CE
:1054200020F480300190607A28B1019820F4801037
:1054300000F5801001900198E168886300200290D7
:10544000E068C0680290029820F040000290029844
:1054500020F480000290029820F40030029002981C
:1054600020F4002002900298E168C860204600F015
:1054700061F9E078012843D1009820F01E000A303D
:105480000090009820F02000203000900098E16803
:10549000886035E0E068C0680290029820F0400023
:1054A000403002900298E168C860204600F042F95E
:1054B00000200190019820F4803000F580300190A8
:1054C000019820F4802000F580200190019820F4BC
:1054D000002000F500200190019820F4001000F554
:1054E00000100190607A28B1019820F4801000F536
:1054F000801001900198E16888631420FFF76EFF27
:10550000E07801280FD1E06880680090009820F0D2
:105510001E000A300090009820F0200020300090FB
:105520000098E168886028463EBD70B588B00446A2
:10553000002600200790069005900490039000211B
:10554000D4F80C010160206900680690069820F4E8
:10555000C0500690069920690160E07A01283DD18B
:105560000321204600F004FD8020E1684862059890
:1055700080B200F58000059005986FF30F00803031
:1055800005900598E1688862059800EB1041049841
:1055900061F30F000490049880B200F500000490BD
:1055A0000498E168C1F80401049800EB104161F32C
:1055B0000F000490049880B204900499E068C0F849
:1055C0000811049800EB104161F30F000490049857
:1055D00080B204900499E068C0F80C1110212046B4
:1055E00000F07AFC204600F051FC002120690161A6
:1055F00020694161491E2069816100212069C161E2
:1056000000252CE004F1180050F8250000680790F0
:105610000798C00F70B100200790079820F08040D5
:1056200000F180400790079820F0006000F10060D2
:10563000079001E00020079004F1180050F82500C1
:1056400007990160002104F1180050F8250001615C
:10565000FF2104F1180050F8250081606D1C60786E
:10566000A842CFD800252CE004F1540050F82500C2
:10567000006801900198C00F70B10020019001985E
:1056800020F0804000F180400190019820F00060FF
:1056900000F10060019001E00020019004F154004D
:1056A00050F8250001990160002104F1540050F8E0
:1056B00025000161FF2104F1540050F825008160AC
:1056C0006D1C6078A842CFD800200390039820F486
:1056D000807000F580700390206900690399884309
:1056E000084321690861E07801281DD1002002905B
:1056F000029820F00100401C0290029820F0020065
:10570000801C02904021029861F38A000290029866
:1057100020F4803000F580300290029861F3594007
:105720000290029920690163204600F050FB304648
:1057300008B070BDF8B50446002600250020009092
:1057400000BF0320FFF753FEE06800690090681C6B
:1057500005461349884201D90020F8BD0098C00FC2
:105760000028EED00025009820F00100401C009099
:105770000098E168086100BFE06800690090681C5B
:1057800005460749884200D904E0009800F001006E
:105790000028F1D100BF0320FFF729FE3046DCE7E7
:1057A000400D030008B50146002000220092009A37
:1057B00022F00102521C0092CA689268009B9A4330
:1057C000CB689A6008BD0EB5014600200022009209
:1057D0000A69926802928A6912680192029AC2F377
:1057E000410232B1012A05D0022A09D0032A0DD183
:1057F00001E000BF00BF019A6FF30A0201920AE0C4
:10580000019A6FF30A02D21C019204E0019A6FF32D
:105810000A02019200BF00BF019B8A691360009ACF
:1058200022F4807202F5807200920A695268009B2D
:105830009A431A430B695A600EBDFCB5024600201C
:1058400000240025019500954D78012D52D19369D2
:105850001D6801951D6900954D6955B9009D25F09C
:105860007F050095009D25F4002505F50025009590
:1058700016E08E684D69B54207D98D684D610E7A84
:10588000009D66F30605009504E00E7D009D66F31D
:1058900006050095009D25F4002505F500250095D9
:1058A000009D1D61D578012D06D10F7802F11805F4
:1058B00055F827500E696E61019D25F0806505F150
:1058C00080650195019D25F0004505F10045019594
:1058D000019D1D60D578002D59D14D69002D56D000
:1058E0000E780125B5402C4315696D6B254316696B
:1058F00075634CE00E7802F1540555F826502D687A
:1059000001950E7802F1540555F826502D69009541
:105910004D695DB90E7A009D66F306050095009D00
:1059200025F4002505F5002500950CE08D684D61F6
:105930000E7A009D66F306050095009D25F400256E
:1059400005F5002500950F7802F1540555F827500C
:10595000009E2E61D578012D06D10F7802F15405F5
:1059600055F827500E696E61019D25F0806505F19F
:1059700080650195019D25F0004505F100450195E3
:105980000F7802F1540555F82750019E2E60FCBD9A
:105990000CB500210191019921F0C04101F1C041F4
:1059A0000191019921F4002101F500210191019952
:1059B00021F07F0118310191019A416D0A61C1788E
:1059C000012915D10021009100F2CC51426D5161A5
:1059D000416D09680091009921F0004101F10041F9
:1059E00000914FF080210091009A416D0A6000BF44
:1059F0000CBD3CB5024600200024019400944C7874
:105A0000012C0CD10D7802F1180454F825300D78D2
:105A10000124AC40009D64F30F0500950BE00D7868
:105A200002F1540454F825300D780124AC40009D57
:105A300064F31F4500951C680194019CC4F3C034B5
:105A4000E4B90D89019C65F30A040194CD78019CA9
:105A500065F3934401948D79019C65F39954019405
:105A6000019C24F0805404F180540194019C24F49E
:105A7000004404F500440194019C1C601469E4692D
:105A8000009D2C431569EC613CBD38B503460020F0
:105A9000002400944C78012C05D10D7803F11804F2
:105AA00054F8252004E00D7803F1540454F825201F
:105AB00014680094009C24F400140094CC78032C07
:105AC00002D0CC78022C05D1009C24F0805404F143
:105AD00080540094009C146038BD3CB50246002000
